{"abi":[{"type":"constructor","inputs":[],"stateMutability":"nonpayable"},{"type":"function","name":"MIN_TIME_BETWEEN_TX","inputs":[],"outputs":[{"name":"","type":"uint256","internalType":"uint256"}],"stateMutability":"view"},{"type":"function","name":"SUSPICIOUS_GAS_PRICE","inputs":[],"outputs":[{"name":"","type":"uint256","internalType":"uint256"}],"stateMutability":"view"},{"type":"function","name":"SUSPICIOUS_TX_COUNT","inputs":[],"outputs":[{"name":"","type":"uint256","internalType":"uint256"}],"stateMutability":"view"},{"type":"function","name":"botPenaltyFee","inputs":[],"outputs":[{"name":"","type":"uint256","internalType":"uint256"}],"stateMutability":"view"},{"type":"function","name":"checkAndUpdateTrading","inputs":[{"name":"account","type":"address","internalType":"address"},{"name":"amount","type":"uint256","internalType":"uint256"},{"name":"isBuy","type":"bool","internalType":"bool"}],"outputs":[{"name":"penaltyAmount","type":"uint256","internalType":"uint256"}],"stateMutability":"nonpayable"},{"type":"function","name":"enableTrading","inputs":[],"outputs":[],"stateMutability":"nonpayable"},{"type":"function","name":"isBot","inputs":[{"name":"","type":"address","internalType":"address"}],"outputs":[{"name":"","type":"bool","internalType":"bool"}],"stateMutability":"view"},{"type":"function","name":"launchTime","inputs":[],"outputs":[{"name":"","type":"uint256","internalType":"uint256"}],"stateMutability":"view"},{"type":"function","name":"owner","inputs":[],"outputs":[{"name":"","type":"address","internalType":"address"}],"stateMutability":"view"},{"type":"function","name":"tradingEnabled","inputs":[],"outputs":[{"name":"","type":"bool","internalType":"bool"}],"stateMutability":"view"},{"type":"function","name":"tradingLimit","inputs":[],"outputs":[{"name":"maxBuyAmount","type":"uint256","internalType":"uint256"},{"name":"maxSellAmount","type":"uint256","internalType":"uint256"},{"name":"cooldownPeriod","type":"uint256","internalType":"uint256"},{"name":"maxTxPerDay","type":"uint256","internalType":"uint256"}],"stateMutability":"view"},{"type":"function","name":"transferOwnership","inputs":[{"name":"newOwner","type":"address","internalType":"address"}],"outputs":[],"stateMutability":"nonpayable"},{"type":"function","name":"updateTradingLimits","inputs":[{"name":"maxBuy","type":"uint256","internalType":"uint256"},{"name":"maxSell","type":"uint256","internalType":"uint256"},{"name":"cooldown","type":"uint256","internalType":"uint256"},{"name":"maxDaily","type":"uint256","internalType":"uint256"}],"outputs":[],"stateMutability":"nonpayable"},{"type":"function","name":"userTrading","inputs":[{"name":"","type":"address","internalType":"address"}],"outputs":[{"name":"lastTradeTime","type":"uint256","internalType":"uint256"},{"name":"dailyTxCount","type":"uint256","internalType":"uint256"},{"name":"dayStartTime","type":"uint256","internalType":"uint256"},{"name":"totalBought","type":"uint256","internalType":"uint256"},{"name":"totalSold","type":"uint256","internalType":"uint256"}],"stateMutability":"view"},{"type":"function","name":"whitelistAddress","inputs":[{"name":"account","type":"address","internalType":"address"},{"name":"status","type":"bool","internalType":"bool"}],"outputs":[],"stateMutability":"nonpayable"},{"type":"function","name":"whitelisted","inputs":[{"name":"","type":"address","internalType":"address"}],"outputs":[{"name":"","type":"bool","internalType":"bool"}],"stateMutability":"view"},{"type":"event","name":"BotDetected","inputs":[{"name":"bot","type":"address","indexed":true,"internalType":"address"},{"name":"reason","type":"string","indexed":false,"internalType":"string"}],"anonymous":false},{"type":"event","name":"OwnershipTransferred","inputs":[{"name":"user","type":"address","indexed":true,"internalType":"address"},{"name":"newOwner","type":"address","indexed":true,"internalType":"address"}],"anonymous":false},{"type":"event","name":"TradingEnabled","inputs":[],"anonymous":false},{"type":"event","name":"TradingLimitUpdated","inputs":[{"name":"maxBuy","type":"uint256","indexed":false,"internalType":"uint256"},{"name":"maxSell","type":"uint256","indexed":false,"internalType":"uint256"}],"anonymous":false}],"bytecode":{"object":"0x60803460cd575f80546001600160a01b031916339081178255907f8be0079c531659141344cd1fd0a4f28419497f9722a3daafe3b4186f6b6457e08180a3608081016001600160401b0381118282101760b957600a91606091604052683635c9adc5dea000008152681b1ae4d6e2ef500000602082015261012c60408201520152683635c9adc5dea00000600455681b1ae4d6e2ef50000060055561012c600655600a6007556032600a5560405161088090816100d28239f35b634e487b7160e01b5f52604160045260245ffd5b5f80fdfe6080806040526004361015610012575f80fd5b5f3560e01c90816305618c18146104d557508063195afad3146104b85780633bbac5791461047b5780633cd0ad0b146104455780634ada218b14610423578063790ca41314610406578063798d5de3146103975780638a8c523c1461033c5780638da5cb5b14610315578063992a7c831461027f5780639b7aa2b71461021b578063b9a45aac146101bc578063bf785c5f146101a1578063bfdae11b14610182578063d936547e146101455763f2fde38b146100cc575f80fd5b34610141576020366003190112610141576100e56104ee565b5f54906100fc336001600160a01b03841614610504565b60018060a01b031680916bffffffffffffffffffffffff60a01b16175f55337f8be0079c531659141344cd1fd0a4f28419497f9722a3daafe3b4186f6b6457e05f80a3005b5f80fd5b34610141576020366003190112610141576001600160a01b036101666104ee565b165f526003602052602060ff60405f2054166040519015158152f35b34610141575f36600319011261014157602060405164e8d4a510008152f35b34610141575f36600319011261014157602060405160058152f35b34610141576040366003190112610141576101d56104ee565b60243590811515809203610141576101f760018060a01b035f54163314610504565b60018060a01b03165f52600360205260405f209060ff801983541691161790555f80f35b34610141576020366003190112610141576001600160a01b0361023c6104ee565b165f52600260205260a060405f20805490600181015490600281015460046003830154920154926040519485526020850152604084015260608301526080820152f35b34610141576060366003190112610141576102986104ee565b6044359081151582036101415760ff6008541680610309575b156102ce576020916102c69160243590610560565b604051908152f35b60405162461bcd60e51b8152602060048201526013602482015272151c98591a5b99c81b9bdd081cdd185c9d1959606a1b6044820152606490fd5b506009544210156102b1565b34610141575f366003190112610141575f546040516001600160a01b039091168152602090f35b34610141575f3660031901126101415761036060018060a01b035f54163314610504565b600160ff196008541617600855426009557f799663458a5ef2936f7fa0c99b3336c69c25890f82974f04e811e5bb359186c75f80a1005b34610141576080366003190112610141577f165ce1bab4586c12e7995a7a12e6e1582fefb35155f79e0b71bcae5964d8a93860406004356024356103e560018060a01b035f54163314610504565b816004558060055560443560065560643560075582519182526020820152a1005b34610141575f366003190112610141576020600954604051908152f35b34610141575f36600319011261014157602060ff600854166040519015158152f35b34610141575f36600319011261014157608060045460055460065460075491604051938452602084015260408301526060820152f35b34610141576020366003190112610141576001600160a01b0361049c6104ee565b165f526001602052602060ff60405f2054166040519015158152f35b34610141575f366003190112610141576020600a54604051908152f35b34610141575f3660031901126101415780600260209252f35b600435906001600160a01b038216820361014157565b1561050b57565b60405162461bcd60e51b815260206004820152600c60248201526b15539055551213d49256915160a21b6044820152606490fd5b9190820180921161054c57565b634e487b7160e01b5f52601160045260245ffd5b909160018060a01b03821691825f52600160205260ff60405f2054166107b857825f52600360205260ff60405f2054166107b057825f52600260205260405f209260028401805462015180810180911161054c574210156107a1575b50600184019182546007541115610766576105db85546006549061053f565b421061072f576105ea906107ec565b6106ab575042835580545f19811461054c5760010190551561065b57600454821161062457600361061e910191825461053f565b90555f90565b60405162461bcd60e51b815260206004820152600f60248201526e45786365656473206d61782062757960881b6044820152606490fd5b600554821161067357600461061e910191825461053f565b60405162461bcd60e51b815260206004820152601060248201526f115e18d959591cc81b585e081cd95b1b60821b6044820152606490fd5b92505050805f52600160205260405f20600160ff198254161790557f592ac15bd4ea5ce974441da086acea0e96d3c46f8caedb9cfcc4a1367038d73c606060405160208152601360208201527229bab9b834b1b4b7bab9903132b430bb34b7b960691b6040820152a2600a549081810291818304149015171561054c576064900490565b60405162461bcd60e51b815260206004820152600f60248201526e10dbdbdb191bdddb881c195c9a5bd9608a1b6044820152606490fd5b60405162461bcd60e51b815260206004820152601360248201527211185a5b1e481b1a5b5a5d081c995858da1959606a1b6044820152606490fd5b5f60018601554290555f6105bc565b505050505f90565b60405162461bcd60e51b815260206004820152600c60248201526b109bdd0819195d1958dd195960a21b6044820152606490fd5b803b6108445760018060a01b03165f52600260205260405f208054430343811161054c576002119081610834575b5061082f5764e8d4a510003a1161082f575f90565b600190565b600591506001015410155f61081a565b5060019056fea2646970667358221220c4fd16a9e50b19deeed6e646f36fb2e67015406b5149b472c23fc357a656b06964736f6c634300081c0033","linkReferences":{}},"methodIdentifiers":{"MIN_TIME_BETWEEN_TX()":"05618c18","SUSPICIOUS_GAS_PRICE()":"bfdae11b","SUSPICIOUS_TX_COUNT()":"bf785c5f","botPenaltyFee()":"195afad3","checkAndUpdateTrading(address,uint256,bool)":"992a7c83","enableTrading()":"8a8c523c","isBot(address)":"3bbac579","launchTime()":"790ca413","owner()":"8da5cb5b","tradingEnabled()":"4ada218b","tradingLimit()":"3cd0ad0b","transferOwnership(address)":"f2fde38b","updateTradingLimits(uint256,uint256,uint256,uint256)":"798d5de3","userTrading(address)":"9b7aa2b7","whitelistAddress(address,bool)":"b9a45aac","whitelisted(address)":"d936547e"},"id":43}