{"abi":[{"type":"constructor","inputs":[{"name":"_owner","type":"address","internalType":"address"}],"stateMutability":"nonpayable"},{"type":"function","name":"checkAndUpdateBalance","inputs":[{"name":"token","type":"address","internalType":"address"},{"name":"holder","type":"address","internalType":"address"},{"name":"amount","type":"uint256","internalType":"uint256"},{"name":"isReceiving","type":"bool","internalType":"bool"}],"outputs":[{"name":"","type":"bool","internalType":"bool"}],"stateMutability":"view"},{"type":"function","name":"checkAndUpdateSell","inputs":[{"name":"token","type":"address","internalType":"address"},{"name":"seller","type":"address","internalType":"address"},{"name":"amount","type":"uint256","internalType":"uint256"}],"outputs":[{"name":"","type":"bool","internalType":"bool"}],"stateMutability":"nonpayable"},{"type":"function","name":"dailySellsAmount","inputs":[{"name":"","type":"address","internalType":"address"},{"name":"","type":"address","internalType":"address"}],"outputs":[{"name":"","type":"uint256","internalType":"uint256"}],"stateMutability":"view"},{"type":"function","name":"dailySellsAmountTotal","inputs":[{"name":"","type":"address","internalType":"address"},{"name":"","type":"address","internalType":"address"}],"outputs":[{"name":"","type":"uint256","internalType":"uint256"}],"stateMutability":"view"},{"type":"function","name":"dailySellsCount","inputs":[{"name":"","type":"address","internalType":"address"},{"name":"","type":"address","internalType":"address"}],"outputs":[{"name":"","type":"uint256","internalType":"uint256"}],"stateMutability":"view"},{"type":"function","name":"dailySellsCountTotal","inputs":[{"name":"","type":"address","internalType":"address"},{"name":"","type":"address","internalType":"address"}],"outputs":[{"name":"","type":"uint256","internalType":"uint256"}],"stateMutability":"view"},{"type":"function","name":"dailyTrades","inputs":[{"name":"","type":"address","internalType":"address"},{"name":"","type":"address","internalType":"address"}],"outputs":[{"name":"","type":"uint256","internalType":"uint256"}],"stateMutability":"view"},{"type":"function","name":"dailyTradesAmount","inputs":[{"name":"","type":"address","internalType":"address"},{"name":"","type":"address","internalType":"address"}],"outputs":[{"name":"","type":"uint256","internalType":"uint256"}],"stateMutability":"view"},{"type":"function","name":"dailyTradesAmountTotal","inputs":[{"name":"","type":"address","internalType":"address"},{"name":"","type":"address","internalType":"address"}],"outputs":[{"name":"","type":"uint256","internalType":"uint256"}],"stateMutability":"view"},{"type":"function","name":"dailyTradesCount","inputs":[{"name":"","type":"address","internalType":"address"},{"name":"","type":"address","internalType":"address"}],"outputs":[{"name":"","type":"uint256","internalType":"uint256"}],"stateMutability":"view"},{"type":"function","name":"dailyTradesCountTotal","inputs":[{"name":"","type":"address","internalType":"address"},{"name":"","type":"address","internalType":"address"}],"outputs":[{"name":"","type":"uint256","internalType":"uint256"}],"stateMutability":"view"},{"type":"function","name":"disableSecurity","inputs":[{"name":"token","type":"address","internalType":"address"}],"outputs":[],"stateMutability":"nonpayable"},{"type":"function","name":"enableSecurity","inputs":[{"name":"token","type":"address","internalType":"address"},{"name":"maxSellPct","type":"uint256","internalType":"uint256"},{"name":"maxWalletPct","type":"uint256","internalType":"uint256"},{"name":"maxTotalSellPct","type":"uint256","internalType":"uint256"}],"outputs":[],"stateMutability":"nonpayable"},{"type":"function","name":"isTokenSecurityEnabled","inputs":[{"name":"","type":"address","internalType":"address"}],"outputs":[{"name":"","type":"bool","internalType":"bool"}],"stateMutability":"view"},{"type":"function","name":"owner","inputs":[],"outputs":[{"name":"","type":"address","internalType":"address"}],"stateMutability":"view"},{"type":"function","name":"setWhitelisted","inputs":[{"name":"token","type":"address","internalType":"address"},{"name":"account","type":"address","internalType":"address"},{"name":"status","type":"bool","internalType":"bool"}],"outputs":[],"stateMutability":"nonpayable"},{"type":"function","name":"tokenSecurity","inputs":[{"name":"","type":"address","internalType":"address"}],"outputs":[{"name":"maxSellPercentage","type":"uint256","internalType":"uint256"},{"name":"maxWalletPercentage","type":"uint256","internalType":"uint256"},{"name":"maxTotalSellPercentage","type":"uint256","internalType":"uint256"},{"name":"securityEnabled","type":"bool","internalType":"bool"}],"stateMutability":"view"},{"type":"function","name":"transferOwnership","inputs":[{"name":"newOwner","type":"address","internalType":"address"}],"outputs":[],"stateMutability":"nonpayable"},{"type":"function","name":"walletSizes","inputs":[{"name":"","type":"address","internalType":"address"},{"name":"","type":"address","internalType":"address"}],"outputs":[{"name":"","type":"uint256","internalType":"uint256"}],"stateMutability":"view"},{"type":"function","name":"whitelisted","inputs":[{"name":"","type":"address","internalType":"address"},{"name":"","type":"address","internalType":"address"}],"outputs":[{"name":"","type":"bool","internalType":"bool"}],"stateMutability":"view"},{"type":"event","name":"OwnershipTransferred","inputs":[{"name":"user","type":"address","indexed":true,"internalType":"address"},{"name":"newOwner","type":"address","indexed":true,"internalType":"address"}],"anonymous":false},{"type":"event","name":"SecurityDisabled","inputs":[{"name":"token","type":"address","indexed":true,"internalType":"address"}],"anonymous":false},{"type":"event","name":"SecurityEnabled","inputs":[{"name":"token","type":"address","indexed":true,"internalType":"address"}],"anonymous":false}],"bytecode":{"object":"0x608034609757601f610e5538819003918201601f19168301916001600160401b03831184841017609b57808492602094604052833981010312609757516001600160a01b038116908190036097575f80546001600160a01b0319168217815560405191907f8be0079c531659141344cd1fd0a4f28419497f9722a3daafe3b4186f6b6457e08180a360018055610da590816100b08239f35b5f80fd5b634e487b7160e01b5f52604160045260245ffdfe60806040526004361015610011575f80fd5b5f3560e01c806311b9e5301461087d578063318484451461082d57806333701cd5146107dd57806333914a51146107555780635e956302146107055780636ef4410c146106b557806378897ff1146106565780638da5cb5b1461062f578063920f819a146105df578063a6c5147b1461058f578063a8d561f91461053f578063a930f3d314610502578063a97a6d6314610484578063bc120fe71461042d578063bc896472146102d4578063c194223614610284578063cca4339e14610205578063d2d49085146101b5578063ed6b74541461016e5763f2fde38b146100f5575f80fd5b3461016a57602036600319011261016a5761010e6108cd565b5f5490610125336001600160a01b038416146108f9565b60018060a01b031680916bffffffffffffffffffffffff60a01b16175f55337f8be0079c531659141344cd1fd0a4f28419497f9722a3daafe3b4186f6b6457e05f80a3005b5f80fd5b3461016a57608036600319011261016a576101876108cd565b61018f6108e3565b606435801515810361016a576020926101ab9260443591610ba2565b6040519015158152f35b3461016a57604036600319011261016a576101ce6108cd565b6101d66108e3565b6001600160a01b039182165f908152600e60209081526040808320949093168252928352819020549051908152f35b3461016a57606036600319011261016a5761021e6108cd565b6102266108e3565b60018054036102525760209161024491600260015560443591610995565b600180556040519015158152f35b60405162461bcd60e51b815260206004820152600a6024820152695245454e5452414e435960b01b6044820152606490fd5b3461016a57604036600319011261016a5761029d6108cd565b6102a56108e3565b6001600160a01b039182165f908152600960209081526040808320949093168252928352819020549051908152f35b3461016a57608036600319011261016a576102ed6108cd565b6024356044359161030860018060a01b035f541633146108f9565b61271082111580610421575b156103e65760405190608082019082821067ffffffffffffffff8311176103d2576103959360039260405283526020830194855260408301606435815260608401916001835260018060a01b031695865f52600260205260405f209451855551600185015551600284015551151591019060ff801983541691151516179055565b805f52600f60205260405f20600160ff198254161790557fb3a079f290278759fcacb22888b8883ac3eb6fcc26f061fea54872f4c19bf2285f80a2005b634e487b7160e01b5f52604160045260245ffd5b60405162461bcd60e51b8152602060048201526013602482015272496e76616c69642070657263656e746167657360681b6044820152606490fd5b50612710831115610314565b3461016a57604036600319011261016a576104466108cd565b61044e6108e3565b9060018060a01b03165f52600460205260405f209060018060a01b03165f52602052602060ff60405f2054166040519015158152f35b3461016a57606036600319011261016a5761049d6108cd565b6104a56108e3565b60443590811515820361016a57610500926104ca60018060a01b035f541633146108f9565b60018060a01b03165f52600460205260405f209060018060a01b03165f5260205260405f209060ff801983541691151516179055565b005b3461016a57602036600319011261016a576001600160a01b036105236108cd565b165f52600f602052602060ff60405f2054166040519015158152f35b3461016a57604036600319011261016a576105586108cd565b6105606108e3565b6001600160a01b039182165f908152600860209081526040808320949093168252928352819020549051908152f35b3461016a57604036600319011261016a576105a86108cd565b6105b06108e3565b6001600160a01b039182165f908152600a60209081526040808320949093168252928352819020549051908152f35b3461016a57604036600319011261016a576105f86108cd565b6106006108e3565b6001600160a01b039182165f908152600560209081526040808320949093168252928352819020549051908152f35b3461016a575f36600319011261016a575f546040516001600160a01b039091168152602090f35b3461016a57602036600319011261016a576001600160a01b036106776108cd565b165f526002602052608060405f2080549060018101549060ff6003600283015492015416916040519384526020840152604083015215156060820152f35b3461016a57604036600319011261016a576106ce6108cd565b6106d66108e3565b6001600160a01b039182165f908152600b60209081526040808320949093168252928352819020549051908152f35b3461016a57604036600319011261016a5761071e6108cd565b6107266108e3565b6001600160a01b039182165f908152600760209081526040808320949093168252928352819020549051908152f35b3461016a57602036600319011261016a5761076e6108cd565b61078260018060a01b035f541633146108f9565b6001600160a01b03165f818152600f60209081526040808320805460ff1990811690915560029092528220600301805490911690557f8d799c8a554fd387066a4bea0be1618a04accaded8c77622df2c3f471a6958399080a2005b3461016a57604036600319011261016a576107f66108cd565b6107fe6108e3565b6001600160a01b039182165f908152600c60209081526040808320949093168252928352819020549051908152f35b3461016a57604036600319011261016a576108466108cd565b61084e6108e3565b6001600160a01b039182165f908152600d60209081526040808320949093168252928352819020549051908152f35b3461016a57604036600319011261016a576108966108cd565b61089e6108e3565b6001600160a01b039182165f908152600660209081526040808320949093168252928352819020549051908152f35b600435906001600160a01b038216820361016a57565b602435906001600160a01b038216820361016a57565b1561090057565b60405162461bcd60e51b815260206004820152600c60248201526b15539055551213d49256915160a21b6044820152606490fd5b90601f8019910116810190811067ffffffffffffffff8211176103d257604052565b8115610960570490565b634e487b7160e01b5f52601260045260245ffd5b9190820180921161098157565b634e487b7160e01b5f52601160045260245ffd5b6001600160a01b03165f818152600260209081526040808320600f909252909120549093929060ff1615610b6657815f52600460205260405f209060018060a01b03165f5260205260ff60405f205416610b5e576040516318160ddd60e01b815292602084600481855afa938415610b53575f94610b1f575b50612710830283810461271014841517156109815784610a2d91610956565b815410610ae357610a5a62015180420493835f52600360205260405f20855f5260205260405f2054610974565b936127108502858104612710148615171561098157600291610a7b91610956565b91015410610a9e575f52600360205260405f20905f5260205260405f2055600190565b60405162461bcd60e51b815260206004820152601960248201527f4461696c792073656c6c206c696d6974206578636565646564000000000000006044820152606490fd5b60405162461bcd60e51b81526020600482015260146024820152730a6cad8d840c2dadeeadce840e8dede40d0d2ced60631b6044820152606490fd5b9093506020813d602011610b4b575b81610b3b60209383610934565b8101031261016a5751925f610a0e565b3d9150610b2e565b6040513d5f823e3d90fd5b505050600190565b60405162461bcd60e51b815260206004820152601460248201527314d958dd5c9a5d1e481b9bdd08195b98589b195960621b6044820152606490fd5b6001600160a01b03165f81815260026020526040902060038101549094929391929060ff16158015610d58575b610d4e57825f52600460205260405f2060018060a01b0385165f5260205260ff60405f205416610d4e57610c07575b50505050600190565b6040516318160ddd60e01b815292602084600481865afa938415610b53575f94610d19575b506040516370a0823160e01b81526001600160a01b03909116600482015291602090839060249082905afa8015610b53575f90610ce5575b610c6e9250610974565b612710810290808204612710149015171561098157600191610c8f91610956565b91015410610ca0575f808080610bfe565b60405162461bcd60e51b815260206004820152601860248201527f42616c616e636520776f756c6420657863656564206d617800000000000000006044820152606490fd5b506020823d602011610d11575b81610cff60209383610934565b8101031261016a57610c6e9151610c64565b3d9150610cf2565b9093506020813d602011610d46575b81610d3560209383610934565b8101031261016a5751926020610c2c565b3d9150610d28565b5050505050600190565b50825f52600f60205260ff60405f20541615610bcf56fea264697066735822122065cbc92f6fabccb12224985c9a16762fbdc42d037dd11121fb57e8c2513b9b0c64736f6c634300081c0033","linkReferences":{}},"methodIdentifiers":{"checkAndUpdateBalance(address,address,uint256,bool)":"ed6b7454","checkAndUpdateSell(address,address,uint256)":"cca4339e","dailySellsAmount(address,address)":"a8d561f9","dailySellsAmountTotal(address,address)":"31848445","dailySellsCount(address,address)":"5e956302","dailySellsCountTotal(address,address)":"6ef4410c","dailyTrades(address,address)":"11b9e530","dailyTradesAmount(address,address)":"a6c5147b","dailyTradesAmountTotal(address,address)":"d2d49085","dailyTradesCount(address,address)":"c1942236","dailyTradesCountTotal(address,address)":"33701cd5","disableSecurity(address)":"33914a51","enableSecurity(address,uint256,uint256,uint256)":"bc896472","isTokenSecurityEnabled(address)":"a930f3d3","owner()":"8da5cb5b","setWhitelisted(address,address,bool)":"a97a6d63","tokenSecurity(address)":"78897ff1","transferOwnership(address)":"f2fde38b","walletSizes(address,address)":"920f819a","whitelisted(address,address)":"bc120fe7"},"id":44}