{"abi":[{"type":"constructor","inputs":[{"name":"_authority","type":"address","internalType":"address"},{"name":"_feeCollector","type":"address","internalType":"address"},{"name":"_protocolFeeBps","type":"uint256","internalType":"uint256"}],"stateMutability":"nonpayable"},{"type":"function","name":"MAX_FEE_BPS","inputs":[],"outputs":[{"name":"","type":"uint256","internalType":"uint256"}],"stateMutability":"view"},{"type":"function","name":"MAX_RECIPIENTS","inputs":[],"outputs":[{"name":"","type":"uint256","internalType":"uint256"}],"stateMutability":"view"},{"type":"function","name":"accumulatedFees","inputs":[{"name":"","type":"address","internalType":"address"}],"outputs":[{"name":"","type":"uint256","internalType":"uint256"}],"stateMutability":"view"},{"type":"function","name":"authority","inputs":[],"outputs":[{"name":"","type":"address","internalType":"contract Authority"}],"stateMutability":"view"},{"type":"function","name":"distributeRevenue","inputs":[{"name":"token","type":"address","internalType":"address"}],"outputs":[],"stateMutability":"nonpayable"},{"type":"function","name":"distributionPeriod","inputs":[],"outputs":[{"name":"","type":"uint256","internalType":"uint256"}],"stateMutability":"view"},{"type":"function","name":"feeCollector","inputs":[],"outputs":[{"name":"","type":"address","internalType":"address"}],"stateMutability":"view"},{"type":"function","name":"getAccumulatedFees","inputs":[{"name":"token","type":"address","internalType":"address"}],"outputs":[{"name":"","type":"uint256","internalType":"uint256"}],"stateMutability":"view"},{"type":"function","name":"getRevenueRecipients","inputs":[],"outputs":[{"name":"recipients","type":"address[]","internalType":"address[]"},{"name":"shares","type":"uint256[]","internalType":"uint256[]"}],"stateMutability":"view"},{"type":"function","name":"lastDistribution","inputs":[{"name":"","type":"address","internalType":"address"}],"outputs":[{"name":"","type":"uint256","internalType":"uint256"}],"stateMutability":"view"},{"type":"function","name":"owner","inputs":[],"outputs":[{"name":"","type":"address","internalType":"address"}],"stateMutability":"view"},{"type":"function","name":"processTrade","inputs":[{"name":"token","type":"address","internalType":"address"},{"name":"amount","type":"uint256","internalType":"uint256"}],"outputs":[{"name":"fee","type":"uint256","internalType":"uint256"}],"stateMutability":"nonpayable"},{"type":"function","name":"protocolFeeBps","inputs":[],"outputs":[{"name":"","type":"uint256","internalType":"uint256"}],"stateMutability":"view"},{"type":"function","name":"revenueRecipients","inputs":[{"name":"","type":"uint256","internalType":"uint256"}],"outputs":[{"name":"","type":"address","internalType":"address"}],"stateMutability":"view"},{"type":"function","name":"revenueShares","inputs":[{"name":"","type":"uint256","internalType":"uint256"}],"outputs":[{"name":"","type":"uint256","internalType":"uint256"}],"stateMutability":"view"},{"type":"function","name":"setAuthority","inputs":[{"name":"newAuthority","type":"address","internalType":"contract Authority"}],"outputs":[],"stateMutability":"nonpayable"},{"type":"function","name":"transferOwnership","inputs":[{"name":"newOwner","type":"address","internalType":"address"}],"outputs":[],"stateMutability":"nonpayable"},{"type":"function","name":"updateDistributionPeriod","inputs":[{"name":"_distributionPeriod","type":"uint256","internalType":"uint256"}],"outputs":[],"stateMutability":"nonpayable"},{"type":"function","name":"updateFeeParameters","inputs":[{"name":"_protocolFeeBps","type":"uint256","internalType":"uint256"}],"outputs":[],"stateMutability":"nonpayable"},{"type":"function","name":"updateRevenueRecipients","inputs":[{"name":"_recipients","type":"address[]","internalType":"address[]"},{"name":"_shares","type":"uint256[]","internalType":"uint256[]"}],"outputs":[],"stateMutability":"nonpayable"},{"type":"event","name":"AuthorityUpdated","inputs":[{"name":"user","type":"address","indexed":true,"internalType":"address"},{"name":"newAuthority","type":"address","indexed":true,"internalType":"contract Authority"}],"anonymous":false},{"type":"event","name":"FeeCollected","inputs":[{"name":"token","type":"address","indexed":true,"internalType":"address"},{"name":"amount","type":"uint256","indexed":false,"internalType":"uint256"}],"anonymous":false},{"type":"event","name":"FeeParametersUpdated","inputs":[{"name":"protocolFeeBps","type":"uint256","indexed":false,"internalType":"uint256"}],"anonymous":false},{"type":"event","name":"OwnershipTransferred","inputs":[{"name":"user","type":"address","indexed":true,"internalType":"address"},{"name":"newOwner","type":"address","indexed":true,"internalType":"address"}],"anonymous":false},{"type":"event","name":"RevenueDistributed","inputs":[{"name":"token","type":"address","indexed":true,"internalType":"address"},{"name":"amount","type":"uint256","indexed":false,"internalType":"uint256"}],"anonymous":false},{"type":"event","name":"RevenueRecipientsUpdated","inputs":[{"name":"recipients","type":"address[]","indexed":false,"internalType":"address[]"},{"name":"shares","type":"uint256[]","indexed":false,"internalType":"uint256[]"}],"anonymous":false},{"type":"error","name":"InvalidRecipients","inputs":[]},{"type":"error","name":"InvalidShares","inputs":[]},{"type":"error","name":"SharesExceedMax","inputs":[]},{"type":"error","name":"TooManyRecipients","inputs":[]}],"bytecode":{"object":"0x60803461019357601f61120538819003918201601f19168301916001600160401b038311848410176101975780849260609460405283398101031261019357610047816101ab565b906040610056602083016101ab565b9101519160018060a01b0316903360018060a01b03195f5416175f558160018060a01b031960015416176001556040519133337f8be0079c531659141344cd1fd0a4f28419497f9722a3daafe3b4186f6b6457e05f80a3337fa3396fd7f6e0a21b50e5089d2da70d5ac0a3bbbd1f617a93f134b763899801985f80a360016002556001600160a01b031690811561015157506064821161011d57600380546001600160a01b0319169190911790556004556201518060095560405161104590816101c08239f35b60405162461bcd60e51b815260206004820152600c60248201526b08ccaca40e8dede40d0d2ced60a31b6044820152606490fd5b62461bcd60e51b815260206004820152601560248201527f496e76616c69642066656520636f6c6c6563746f7200000000000000000000006044820152606490fd5b5f80fd5b634e487b7160e01b5f52604160045260245ffd5b51906001600160a01b03821682036101935756fe60806040526004361015610011575f80fd5b5f358060e01c90816314b29f6814610cf857816330a7afbc14610cc057816335659fb814610ca35781633ec23d0f14610a2557816344b50bfc146109ed578163564201f9146100f8578163577fbd5f146109825781637a9e5e4b146108725781638da5cb5b1461084b57816390342a1f1461072b5781639b5017231461070e578163a6980ce2146106f3578163bf7e214f146106cb578163c415b95c146106a3578163d37a563b146103c5578163d55be8c6146103aa578163e11c73b714610313578163e381b5ea146101af578163f2fde38b14610134575063fcf66664146100f8575f80fd5b34610130576020366003190112610130576001600160a01b03610119610d7e565b165f526007602052602060405f2054604051908152f35b5f80fd5b3461013057602036600319011261013057610169610164610153610d7e565b926001600160e01b03191633610f5d565b610e1e565b60018060a01b0316806bffffffffffffffffffffffff60a01b5f5416175f55337f8be0079c531659141344cd1fd0a4f28419497f9722a3daafe3b4186f6b6457e05f80a3005b34610130575f366003190112610130576040518060206005549283815201809260055f527f036b6384b5eca791c62761152d0c79bb0604c104a5fb6f4eb0703f3154bb3db0905f5b8181106102f4575050508161020d910382610e59565b604051809260206006549283815201809260065f527ff652222313e28459528d920b65115c16c04f3efc82aaedc97be59f3f377c0d3f905f5b8181106102de575050508461025c910385610e59565b604051938493604085019060408652518091526060850192905f5b8181106102bc575050506020908483038286015251918281520191905f5b8181106102a3575050500390f35b8251845285945060209384019390920191600101610295565b82516001600160a01b0316855287965060209485019490920191600101610277565b8254845260209093019260019283019201610246565b82546001600160a01b03168452602090930192600192830192016101f7565b346101305760203660031901126101305761033d6101646004359263ffffffff60e01b1633610f5d565b60648111610376576020817fc2c12ef3c242d593cffe3a73c839d709048eba63e29d5547ff01eea1fb6b1a9792600455604051908152a1005b60405162461bcd60e51b815260206004820152600c60248201526b08ccaca40e8dede40d0d2ced60a31b6044820152606490fd5b34610130575f36600319011261013057602060405160648152f35b346101305760403660031901126101305760043567ffffffffffffffff8111610130576103f6903690600401610d94565b9060243567ffffffffffffffff81116101305761042f61041d610164923690600401610d94565b92909563ffffffff60e01b1633610f5d565b821561068557600a831161069457808303610685575f805b8282106106495761271091501161063a576005545f60055580610602575b506006545f600655806105ca575b505f5b838110610519575060405192806040850160408652526060840192905f905b8082106104ef5750505082820360208401528082526001600160fb1b038111610130577f782f74d7531383e2bba27054a4057bc2d4541867df6410d80352ad4f28dec1ec93602092849260051b80928583013701030190a1005b90919384359060018060a01b03821680920361013057602081600193829352019501920190610495565b61052c610527828686610e93565b610ea3565b600554600160401b8110156105b65780600161054b9201600555610d3a565b81546001600160a01b0393841660039290921b91821b9390911b1916919091179055610578818387610e93565b359060065491600160401b8310156105b65761059b836001809501600655610d66565b819291549060031b91821b915f19901b191617905501610476565b634e487b7160e01b5f52604160045260245ffd5b60065f526105fc907ff652222313e28459528d920b65115c16c04f3efc82aaedc97be59f3f377c0d3f90810190610eb7565b84610473565b60055f52610634907f036b6384b5eca791c62761152d0c79bb0604c104a5fb6f4eb0703f3154bb3db090810190610eb7565b84610465565b63e4f52db160e01b5f5260045ffd5b6001600160a01b0361065f610527848888610e93565b16156106855761067d60019161067684868a610e93565b3590610dfe565b910190610447565b635d5eb16d60e11b5f5260045ffd5b635531b49560e01b5f5260045ffd5b34610130575f366003190112610130576003546040516001600160a01b039091168152602090f35b34610130575f366003190112610130576001546040516001600160a01b039091168152602090f35b34610130575f366003190112610130576020604051600a8152f35b34610130575f366003190112610130576020600954604051908152f35b3461013057604036600319011261013057610744610d7e565b610752600160025414610dc5565b60028055612710610767600454602435610e0b565b049060018060a01b031690815f52600760205260405f20610789828254610dfe565b905560205f60646040516323b872dd60e01b815233600482015230602482015284604482015282865af180601f3d1160015f511416151661083f575b15610803576020917f06c5efeff5c320943d265dc4e5f1af95ad523555ce0c1957e367dda5514572df83604051848152a26001600255604051908152f35b60405162461bcd60e51b81526020600482015260146024820152731514905394d1915497d19493d357d1905253115160621b6044820152606490fd5b503d823b1517156107c5565b34610130575f366003190112610130575f546040516001600160a01b039091168152602090f35b34610130576020366003190112610130576004356001600160a01b0381169190829003610130575f546001600160a01b031633149081156108ed575b501561013057600180546001600160a01b03191682179055337fa3396fd7f6e0a21b50e5089d2da70d5ac0a3bbbd1f617a93f134b763899801985f80a3005b60015460405163b700961360e01b81523360048201523060248201526001600160e01b0319929092166044830152909150602090829060649082906001600160a01b03165afa908115610977575f91610948575b50826108ae565b61096a915060203d602011610970575b6109628183610e59565b810190610e7b565b82610941565b503d610958565b6040513d5f823e3d90fd5b34610130576020366003190112610130576109ac6101646004359263ffffffff60e01b1633610f5d565b80156109b757600955005b60405162461bcd60e51b815260206004820152600e60248201526d125b9d985b1a59081c195c9a5bd960921b6044820152606490fd5b34610130576020366003190112610130576001600160a01b03610a0e610d7e565b165f526008602052602060405f2054604051908152f35b3461013057602036600319011261013057610a3e610d7e565b610a4c600160025414610dc5565b600280556001600160a01b03165f81815260086020526040902054600954610a7391610dfe565b4210610c5e576005548015610c195760065403610bd457805f52600760205260405f2054908115610b9757805f5260076020525f6040812055805f5260086020524260405f2055816005545f5b818110610b1f57837f8d41c8766c1135ba5f49e1a78778e75075121c93494fcd59d27c505d981422376020858880610b02575b50604051908152a26001600255005b600354610b1991906001600160a01b031686610ecd565b84610af3565b612710610b3b610b2e83610d66565b90549060031b1c85610e0b565b0480610b4b575b50600101610ac0565b610b7281610b5a849894610d3a565b905460039190911b1c6001600160a01b031687610ecd565b8103908111610b8357936001610b42565b634e487b7160e01b5f52601160045260245ffd5b60405162461bcd60e51b81526020600482015260156024820152744e6f206665657320746f206469737472696275746560581b6044820152606490fd5b60405162461bcd60e51b815260206004820152601a60248201527f526563697069656e74732f736861726573206d69736d617463680000000000006044820152606490fd5b60405162461bcd60e51b815260206004820152601860248201527f4e6f20726563697069656e747320636f6e6669677572656400000000000000006044820152606490fd5b60405162461bcd60e51b815260206004820152601f60248201527f446973747269627574696f6e20706572696f64206e6f7420656c6170736564006044820152606490fd5b34610130575f366003190112610130576020600454604051908152f35b346101305760203660031901126101305760043560065481101561013057610ce9602091610d66565b90549060031b1c604051908152f35b346101305760203660031901126101305760043560055481101561013057610d21602091610d3a565b905460405160039290921b1c6001600160a01b03168152f35b600554811015610d525760055f5260205f2001905f90565b634e487b7160e01b5f52603260045260245ffd5b600654811015610d525760065f5260205f2001905f90565b600435906001600160a01b038216820361013057565b9181601f840112156101305782359167ffffffffffffffff8311610130576020808501948460051b01011161013057565b15610dcc57565b60405162461bcd60e51b815260206004820152600a6024820152695245454e5452414e435960b01b6044820152606490fd5b91908201809211610b8357565b81810292918115918404141715610b8357565b15610e2557565b60405162461bcd60e51b815260206004820152600c60248201526b15539055551213d49256915160a21b6044820152606490fd5b90601f8019910116810190811067ffffffffffffffff8211176105b657604052565b90816020910312610130575180151581036101305790565b9190811015610d525760051b0190565b356001600160a01b03811681036101305790565b818110610ec2575050565b5f8155600101610eb7565b60405163a9059cbb60e01b81526001600160a01b03909216600483015260248201929092526020905f9060449082855af19081601f3d1160015f5114161516610f50575b5015610f1957565b60405162461bcd60e51b815260206004820152600f60248201526e1514905394d1915497d19052531151608a1b6044820152606490fd5b3b153d171590505f610f11565b6001546001600160a01b0316801515929083610f95575b50508115610f80575090565b5f546001600160a01b03918216911614919050565b60405163b700961360e01b81526001600160a01b03841660048201523060248201526001600160e01b031992909216604483015291925090602090829060649082905afa908115610977575f91610ff0575b50905f80610f74565b611009915060203d602011610970576109628183610e59565b5f610fe756fea2646970667358221220f668cf7ef1e3069c4f579a432461677c371deeabf346d13147fdc64680cbb39d64736f6c634300081c0033","linkReferences":{}},"methodIdentifiers":{"MAX_FEE_BPS()":"d55be8c6","MAX_RECIPIENTS()":"a6980ce2","accumulatedFees(address)":"fcf66664","authority()":"bf7e214f","distributeRevenue(address)":"3ec23d0f","distributionPeriod()":"9b501723","feeCollector()":"c415b95c","getAccumulatedFees(address)":"564201f9","getRevenueRecipients()":"e381b5ea","lastDistribution(address)":"44b50bfc","owner()":"8da5cb5b","processTrade(address,uint256)":"90342a1f","protocolFeeBps()":"35659fb8","revenueRecipients(uint256)":"14b29f68","revenueShares(uint256)":"30a7afbc","setAuthority(address)":"7a9e5e4b","transferOwnership(address)":"f2fde38b","updateDistributionPeriod(uint256)":"577fbd5f","updateFeeParameters(uint256)":"e11c73b7","updateRevenueRecipients(address[],uint256[])":"d37a563b"},"id":35}