{"abi":[{"type":"function","name":"assets","inputs":[{"name":"","type":"address","internalType":"address"}],"outputs":[{"name":"name","type":"string","internalType":"string"},{"name":"symbol","type":"string","internalType":"string"},{"name":"imageUri","type":"string","internalType":"string"},{"name":"description","type":"string","internalType":"string"},{"name":"exists","type":"bool","internalType":"bool"}],"stateMutability":"view"},{"type":"function","name":"getAsset","inputs":[{"name":"tokenAddress","type":"address","internalType":"address"}],"outputs":[{"name":"","type":"tuple","internalType":"struct MemeAssetRegistry.MemeAsset","components":[{"name":"name","type":"string","internalType":"string"},{"name":"symbol","type":"string","internalType":"string"},{"name":"imageUri","type":"string","internalType":"string"},{"name":"description","type":"string","internalType":"string"},{"name":"exists","type":"bool","internalType":"bool"}]}],"stateMutability":"view"},{"type":"function","name":"getRegisteredAssetsCount","inputs":[],"outputs":[{"name":"","type":"uint256","internalType":"uint256"}],"stateMutability":"view"},{"type":"function","name":"isDescriptionTaken","inputs":[{"name":"description","type":"string","internalType":"string"}],"outputs":[{"name":"","type":"bool","internalType":"bool"}],"stateMutability":"view"},{"type":"function","name":"isImageTaken","inputs":[{"name":"imageUri","type":"string","internalType":"string"}],"outputs":[{"name":"","type":"bool","internalType":"bool"}],"stateMutability":"view"},{"type":"function","name":"isNameTaken","inputs":[{"name":"name","type":"string","internalType":"string"}],"outputs":[{"name":"","type":"bool","internalType":"bool"}],"stateMutability":"view"},{"type":"function","name":"registerAsset","inputs":[{"name":"tokenAddress","type":"address","internalType":"address"},{"name":"name","type":"string","internalType":"string"},{"name":"symbol","type":"string","internalType":"string"},{"name":"imageUri","type":"string","internalType":"string"},{"name":"description","type":"string","internalType":"string"}],"outputs":[{"name":"","type":"bytes32","internalType":"bytes32"}],"stateMutability":"nonpayable"},{"type":"function","name":"registeredAssets","inputs":[{"name":"","type":"uint256","internalType":"uint256"}],"outputs":[{"name":"","type":"address","internalType":"address"}],"stateMutability":"view"},{"type":"function","name":"updateAssetAddress","inputs":[{"name":"tokenAddress","type":"address","internalType":"address"},{"name":"pendingHash","type":"bytes32","internalType":"bytes32"}],"outputs":[],"stateMutability":"nonpayable"},{"type":"event","name":"AssetRegistered","inputs":[{"name":"tokenAddress","type":"address","indexed":true,"internalType":"address"},{"name":"name","type":"string","indexed":false,"internalType":"string"},{"name":"symbol","type":"string","indexed":false,"internalType":"string"},{"name":"imageUri","type":"string","indexed":false,"internalType":"string"},{"name":"description","type":"string","indexed":false,"internalType":"string"}],"anonymous":false}],"bytecode":{"object":"0x608080604052346015576114c2908161001a8239f35b5f80fdfe6080806040526004361015610012575f80fd5b5f3560e01c90816330b8b2c6146110e5575080637e35b4b3146110c85780638da894e3146109f1578063a083bd3c146109af578063b3da4e341461095e578063ce234992146101e2578063dd542da914610190578063f11b8188146100d55763fee174df1461007f575f80fd5b346100d15760203660031901126100d1576004356001600160401b0381116100d1576100af9036906004016112fb565b602081519101205f526002602052602060ff60405f2054166040519015158152f35b5f80fd5b346100d15760203660031901126100d1576001600160a01b036100f6611259565b165f52600360205261015a60405f2061010e81611388565b9061018461011e60018301611388565b9161017661012e60028301611388565b61016860ff600461014160038701611388565b950154169560405198899860a08a5260a08a019061126f565b9088820360208a015261126f565b90868203604088015261126f565b90848203606086015261126f565b90151560808301520390f35b346100d15760203660031901126100d1576004356001600160401b0381116100d1576101c09036906004016112fb565b602081519101205f526001602052602060ff60405f2054166040519015158152f35b346100d15760a03660031901126100d1576101fb611259565b506024356001600160401b0381116100d15761021b9036906004016112fb565b6044356001600160401b0381116100d15761023a9036906004016112fb565b906064356001600160401b0381116100d15761025a9036906004016112fb565b906084356001600160401b0381116100d15761027a9036906004016112fb565b92815115610922578051156108e45782511561089f5783511561085a578151602083019081208451602086019081209187519260208901938420915f525f60205260ff60405f20541661081f575f52600160205260ff60405f2054166107e3575f52600260205260ff60405f20541661079e5761033c9060405192839160208084019689518091895e8401818101905f825289518092848c01905e01015f815289518092825e015f815289518092825e015f815203601f1981018352826112da565b519020926040519261034d846112bf565b8352602083019182526040830190815260608301948552608083019160018352845f52600460205260405f2093518051906001600160401b0382116105bb576103968654611350565b601f811161076e575b50602090601f831160011461070b576103cf92915f918361066d575b50508160011b915f199060031b1c19161790565b84555b51805160018501916001600160401b0382116105bb576103f28354611350565b601f81116106db575b50602090601f83116001146106785761042a92915f918361066d5750508160011b915f199060031b1c19161790565b90555b51805160028401916001600160401b0382116105bb5761044d8354611350565b601f811161063d575b50602090601f83116001146105da5761048592915f91836105cf5750508160011b915f199060031b1c19161790565b90555b6003820193519384516001600160401b0381116105bb576020956104ac8354611350565b601f8111610582575b508690601f83116001146105185782610505969593600495936104ec935f9261050d5750508160011b915f199060031b1c19161790565b90555b51151591019060ff801983541691151516179055565b604051908152f35b015190508a806103bb565b90601f19831691845f52815f20925f5b81811061056b57509260019285926105059998966004989610610553575b505050811b0190556104ef565b01515f1960f88460031b161c19169055898080610546565b92938a600181928786015181550195019301610528565b6105ab90845f52885f20601f850160051c8101918a86106105b1575b601f0160051c0190611428565b876104b5565b909150819061059e565b634e487b7160e01b5f52604160045260245ffd5b0151905088806103bb565b90601f19831691845f52815f20925f5b818110610625575090846001959493921061060d575b505050811b019055610488565b01515f1960f88460031b161c19169055878080610600565b929360206001819287860151815501950193016105ea565b61066790845f5260205f20601f850160051c810191602086106105b157601f0160051c0190611428565b87610456565b0151905089806103bb565b90601f19831691845f52815f20925f5b8181106106c357509084600195949392106106ab575b505050811b01905561042d565b01515f1960f88460031b161c1916905588808061069e565b92936020600181928786015181550195019301610688565b61070590845f5260205f20601f850160051c810191602086106105b157601f0160051c0190611428565b886103fb565b90601f19831691875f52815f20925f5b818110610756575090846001959493921061073e575b505050811b0184556103d2565b01515f1960f88460031b161c19169055888080610731565b9293602060018192878601518155019501930161071b565b61079890875f5260205f20601f850160051c810191602086106105b157601f0160051c0190611428565b8861039f565b60405162461bcd60e51b815260206004820152601a60248201527f4465736372697074696f6e20616c7265616479206578697374730000000000006044820152606490fd5b60405162461bcd60e51b8152602060048201526014602482015273496d61676520616c72656164792065786973747360601b6044820152606490fd5b60405162461bcd60e51b81526020600482015260136024820152724e616d6520616c72656164792065786973747360681b6044820152606490fd5b60405162461bcd60e51b815260206004820152601b60248201527f4465736372697074696f6e2063616e6e6f7420626520656d70747900000000006044820152606490fd5b60405162461bcd60e51b815260206004820152601960248201527f496d616765205552492063616e6e6f7420626520656d707479000000000000006044820152606490fd5b60405162461bcd60e51b815260206004820152601660248201527553796d626f6c2063616e6e6f7420626520656d70747960501b6044820152606490fd5b60405162461bcd60e51b81526020600482015260146024820152734e616d652063616e6e6f7420626520656d70747960601b6044820152606490fd5b346100d15760203660031901126100d1576004356001600160401b0381116100d15761098e9036906004016112fb565b602081519101205f525f602052602060ff60405f2054166040519015158152f35b346100d15760203660031901126100d1576004356006548110156100d1576109d8602091611293565b905460405160039290921b1c6001600160a01b03168152f35b346100d15760403660031901126100d157610a0a611259565b6001600160a01b0316602435811561108b57815f52600360205260ff600460405f2001541661104657805f52600460205260ff600460405f200154161561100157805f52600460205260405f2090604051610a64816112bf565b610a6d83611388565b8152610a7b60018401611388565b9060208101918252610a8f60028501611388565b60408201908152610aa260038601611388565b60ff6004606085019783895201541690608084019115158252835160208151910120908351602081519101209060208151910120915f525f60205260405f20600160ff198254161790555f52600160205260405f20600160ff198254161790555f52600260205260405f20600160ff19825416179055865f52600360205260405f209083518051906001600160401b0382116105bb57610b428454611350565b601f8111610fd1575b50602090601f8311600114610f6e57610b7a92915f9183610f635750508160011b915f199060031b1c19161790565b82555b6001820185518051906001600160401b0382116105bb57610b9e8354611350565b601f8111610f33575b50602090601f8311600114610ed057610bd692915f9183610e325750508160011b915f199060031b1c19161790565b90555b6002820183518051906001600160401b0382116105bb57610bfa8354611350565b601f8111610ea0575b50602090601f8311600114610e3d57610c3292915f9183610e325750508160011b915f199060031b1c19161790565b90555b6003820187518051906001600160401b0382116105bb57610c568354611350565b601f8111610e02575b50602090601f8311600114610d985782610c97969593600495936104ec935f92610d8d5750508160011b915f199060031b1c19161790565b60065493680100000000000000008510156105bb577f3bf83055b0867edf021b3edfcbb3e9967244c4100a98ce2723bbabb7c8a4b08e95610d6c610d8894610d7a93610cec896001610d5e9b01600655611293565b81549060031b908d821b9160018060a01b03901b19161790555f5260046020525f600460408220610d1c8161143e565b610d286001820161143e565b610d346002820161143e565b610d406003820161143e565b0155519551935191519360405197889760808952608089019061126f565b90878203602089015261126f565b90858203604087015261126f565b90838203606085015261126f565b0390a2005b015190508e806103bb565b90601f19831691845f52815f20925f5b818110610dea5750926001928592610c979998966004989610610dd257505050811b0190556104ef565b01515f1960f88460031b161c191690558d8080610546565b92936020600181928786015181550195019301610da8565b610e2c90845f5260205f20601f850160051c810191602086106105b157601f0160051c0190611428565b8b610c5f565b015190508c806103bb565b90601f19831691845f52815f20925f5b818110610e885750908460019594939210610e70575b505050811b019055610c35565b01515f1960f88460031b161c191690558b8080610e63565b92936020600181928786015181550195019301610e4d565b610eca90845f5260205f20601f850160051c810191602086106105b157601f0160051c0190611428565b8b610c03565b90601f19831691845f52815f20925f5b818110610f1b5750908460019594939210610f03575b505050811b019055610bd9565b01515f1960f88460031b161c191690558b8080610ef6565b92936020600181928786015181550195019301610ee0565b610f5d90845f5260205f20601f850160051c810191602086106105b157601f0160051c0190611428565b8b610ba7565b015190508b806103bb565b90601f19831691855f52815f20925f5b818110610fb95750908460019594939210610fa1575b505050811b018255610b7d565b01515f1960f88460031b161c191690558a8080610f94565b92936020600181928786015181550195019301610f7e565b610ffb90855f5260205f20601f850160051c810191602086106105b157601f0160051c0190611428565b8a610b4b565b60405162461bcd60e51b815260206004820152601760248201527f50656e64696e67206173736574206e6f7420666f756e640000000000000000006044820152606490fd5b60405162461bcd60e51b815260206004820152601860248201527f417373657420616c7265616479207265676973746572656400000000000000006044820152606490fd5b60405162461bcd60e51b8152602060048201526015602482015274496e76616c696420746f6b656e206164647265737360581b6044820152606490fd5b346100d1575f3660031901126100d1576020600654604051908152f35b346100d15760203660031901126100d1575f6080611101611259565b9261110b816112bf565b606081526060602082015260606040820152606080820152015260018060a01b0316805f52600360205260ff600460405f2001541615611222575f5260036020526111dc60405f2060405190611160826112bf565b61116981611388565b825261121561117a60018301611388565b916020840192835261120261119160028301611388565b604086019081526111ef60ff60046111ab60038701611388565b9560608a019687520154169560808801961515875260405198899860208a525160a060208b015260c08a019061126f565b9051888203601f190160408a015261126f565b9051868203601f1901606088015261126f565b9051848203601f1901608086015261126f565b9051151560a08301520390f35b60405162461bcd60e51b815260206004820152600f60248201526e105cdcd95d081b9bdd08199bdd5b99608a1b6044820152606490fd5b600435906001600160a01b03821682036100d157565b805180835260209291819084018484015e5f828201840152601f01601f1916010190565b6006548110156112ab5760065f5260205f2001905f90565b634e487b7160e01b5f52603260045260245ffd5b60a081019081106001600160401b038211176105bb57604052565b90601f801991011681019081106001600160401b038211176105bb57604052565b81601f820112156100d1578035906001600160401b0382116105bb576040519261132f601f8401601f1916602001856112da565b828452602083830101116100d157815f926020809301838601378301015290565b90600182811c9216801561137e575b602083101461136a57565b634e487b7160e01b5f52602260045260245ffd5b91607f169161135f565b9060405191825f82549261139b84611350565b808452936001811690811561140657506001146113c2575b506113c0925003836112da565b565b90505f9291925260205f20905f915b8183106113ea5750509060206113c0928201015f6113b3565b60209193508060019154838589010152019101909184926113d1565b9050602092506113c094915060ff191682840152151560051b8201015f6113b3565b818110611433575050565b5f8155600101611428565b6114488154611350565b9081611452575050565b81601f5f9311600114611463575055565b8183526020832061147f91601f0160051c810190600101611428565b808252816020812091555556fea26469706673582212206bce7c10b88a3ea6a8692347ece27a83cae8d469dda07e6bd91faabfa67577b364736f6c634300081c0033","linkReferences":{}},"methodIdentifiers":{"assets(address)":"f11b8188","getAsset(address)":"30b8b2c6","getRegisteredAssetsCount()":"7e35b4b3","isDescriptionTaken(string)":"fee174df","isImageTaken(string)":"dd542da9","isNameTaken(string)":"b3da4e34","registerAsset(address,string,string,string,string)":"ce234992","registeredAssets(uint256)":"a083bd3c","updateAssetAddress(address,bytes32)":"8da894e3"},"id":36}