{"abi":[{"type":"constructor","inputs":[{"name":"name_","type":"string","internalType":"string"},{"name":"symbol_","type":"string","internalType":"string"},{"name":"initialOwner","type":"address","internalType":"address"},{"name":"_antiRugPull","type":"address","internalType":"address"}],"stateMutability":"nonpayable"},{"type":"function","name":"DOMAIN_SEPARATOR","inputs":[],"outputs":[{"name":"","type":"bytes32","internalType":"bytes32"}],"stateMutability":"view"},{"type":"function","name":"MIN_TIME_BETWEEN_TX","inputs":[],"outputs":[{"name":"","type":"uint256","internalType":"uint256"}],"stateMutability":"view"},{"type":"function","name":"SUSPICIOUS_GAS_PRICE","inputs":[],"outputs":[{"name":"","type":"uint256","internalType":"uint256"}],"stateMutability":"view"},{"type":"function","name":"SUSPICIOUS_TX_COUNT","inputs":[],"outputs":[{"name":"","type":"uint256","internalType":"uint256"}],"stateMutability":"view"},{"type":"function","name":"allowance","inputs":[{"name":"","type":"address","internalType":"address"},{"name":"","type":"address","internalType":"address"}],"outputs":[{"name":"","type":"uint256","internalType":"uint256"}],"stateMutability":"view"},{"type":"function","name":"antiRugPull","inputs":[],"outputs":[{"name":"","type":"address","internalType":"contract AntiRugPull"}],"stateMutability":"view"},{"type":"function","name":"approve","inputs":[{"name":"spender","type":"address","internalType":"address"},{"name":"amount","type":"uint256","internalType":"uint256"}],"outputs":[{"name":"","type":"bool","internalType":"bool"}],"stateMutability":"nonpayable"},{"type":"function","name":"balanceOf","inputs":[{"name":"","type":"address","internalType":"address"}],"outputs":[{"name":"","type":"uint256","internalType":"uint256"}],"stateMutability":"view"},{"type":"function","name":"botPenaltyFee","inputs":[],"outputs":[{"name":"","type":"uint256","internalType":"uint256"}],"stateMutability":"view"},{"type":"function","name":"checkAndUpdateTrading","inputs":[{"name":"account","type":"address","internalType":"address"},{"name":"amount","type":"uint256","internalType":"uint256"},{"name":"isBuy","type":"bool","internalType":"bool"}],"outputs":[{"name":"","type":"uint256","internalType":"uint256"}],"stateMutability":"pure"},{"type":"function","name":"clearTradingHistory","inputs":[{"name":"trader","type":"address","internalType":"address"}],"outputs":[],"stateMutability":"nonpayable"},{"type":"function","name":"decimals","inputs":[],"outputs":[{"name":"","type":"uint8","internalType":"uint8"}],"stateMutability":"view"},{"type":"function","name":"enableTrading","inputs":[],"outputs":[],"stateMutability":"nonpayable"},{"type":"function","name":"isBot","inputs":[{"name":"","type":"address","internalType":"address"}],"outputs":[{"name":"","type":"bool","internalType":"bool"}],"stateMutability":"view"},{"type":"function","name":"launchTime","inputs":[],"outputs":[{"name":"","type":"uint256","internalType":"uint256"}],"stateMutability":"view"},{"type":"function","name":"mint","inputs":[{"name":"to","type":"address","internalType":"address"},{"name":"amount","type":"uint256","internalType":"uint256"}],"outputs":[],"stateMutability":"nonpayable"},{"type":"function","name":"name","inputs":[],"outputs":[{"name":"","type":"string","internalType":"string"}],"stateMutability":"view"},{"type":"function","name":"nonces","inputs":[{"name":"","type":"address","internalType":"address"}],"outputs":[{"name":"","type":"uint256","internalType":"uint256"}],"stateMutability":"view"},{"type":"function","name":"owner","inputs":[],"outputs":[{"name":"","type":"address","internalType":"address"}],"stateMutability":"view"},{"type":"function","name":"permit","inputs":[{"name":"owner","type":"address","internalType":"address"},{"name":"spender","type":"address","internalType":"address"},{"name":"value","type":"uint256","internalType":"uint256"},{"name":"deadline","type":"uint256","internalType":"uint256"},{"name":"v","type":"uint8","internalType":"uint8"},{"name":"r","type":"bytes32","internalType":"bytes32"},{"name":"s","type":"bytes32","internalType":"bytes32"}],"outputs":[],"stateMutability":"nonpayable"},{"type":"function","name":"symbol","inputs":[],"outputs":[{"name":"","type":"string","internalType":"string"}],"stateMutability":"view"},{"type":"function","name":"totalSupply","inputs":[],"outputs":[{"name":"","type":"uint256","internalType":"uint256"}],"stateMutability":"view"},{"type":"function","name":"tradingEnabled","inputs":[],"outputs":[{"name":"","type":"bool","internalType":"bool"}],"stateMutability":"view"},{"type":"function","name":"tradingLimit","inputs":[],"outputs":[{"name":"maxBuyAmount","type":"uint256","internalType":"uint256"},{"name":"maxSellAmount","type":"uint256","internalType":"uint256"},{"name":"cooldownPeriod","type":"uint256","internalType":"uint256"},{"name":"maxTxPerDay","type":"uint256","internalType":"uint256"}],"stateMutability":"view"},{"type":"function","name":"transfer","inputs":[{"name":"to","type":"address","internalType":"address"},{"name":"amount","type":"uint256","internalType":"uint256"}],"outputs":[{"name":"","type":"bool","internalType":"bool"}],"stateMutability":"nonpayable"},{"type":"function","name":"transferFrom","inputs":[{"name":"from","type":"address","internalType":"address"},{"name":"to","type":"address","internalType":"address"},{"name":"amount","type":"uint256","internalType":"uint256"}],"outputs":[{"name":"","type":"bool","internalType":"bool"}],"stateMutability":"nonpayable"},{"type":"function","name":"transferOwnership","inputs":[{"name":"newOwner","type":"address","internalType":"address"}],"outputs":[],"stateMutability":"nonpayable"},{"type":"function","name":"updateTradingLimits","inputs":[{"name":"maxBuy","type":"uint256","internalType":"uint256"},{"name":"maxSell","type":"uint256","internalType":"uint256"},{"name":"cooldown","type":"uint256","internalType":"uint256"},{"name":"maxDaily","type":"uint256","internalType":"uint256"}],"outputs":[],"stateMutability":"nonpayable"},{"type":"function","name":"userTrading","inputs":[{"name":"","type":"address","internalType":"address"}],"outputs":[{"name":"lastTradeTime","type":"uint256","internalType":"uint256"},{"name":"dailyTxCount","type":"uint256","internalType":"uint256"},{"name":"dayStartTime","type":"uint256","internalType":"uint256"},{"name":"totalBought","type":"uint256","internalType":"uint256"},{"name":"totalSold","type":"uint256","internalType":"uint256"}],"stateMutability":"view"},{"type":"function","name":"whitelistAddress","inputs":[{"name":"account","type":"address","internalType":"address"},{"name":"status","type":"bool","internalType":"bool"}],"outputs":[],"stateMutability":"nonpayable"},{"type":"function","name":"whitelisted","inputs":[{"name":"","type":"address","internalType":"address"}],"outputs":[{"name":"","type":"bool","internalType":"bool"}],"stateMutability":"view"},{"type":"event","name":"Approval","inputs":[{"name":"owner","type":"address","indexed":true,"internalType":"address"},{"name":"spender","type":"address","indexed":true,"internalType":"address"},{"name":"amount","type":"uint256","indexed":false,"internalType":"uint256"}],"anonymous":false},{"type":"event","name":"BotDetected","inputs":[{"name":"bot","type":"address","indexed":true,"internalType":"address"},{"name":"reason","type":"string","indexed":false,"internalType":"string"}],"anonymous":false},{"type":"event","name":"OwnershipTransferred","inputs":[{"name":"user","type":"address","indexed":true,"internalType":"address"},{"name":"newOwner","type":"address","indexed":true,"internalType":"address"}],"anonymous":false},{"type":"event","name":"TradingEnabled","inputs":[],"anonymous":false},{"type":"event","name":"TradingLimitUpdated","inputs":[{"name":"maxBuy","type":"uint256","indexed":false,"internalType":"uint256"},{"name":"maxSell","type":"uint256","indexed":false,"internalType":"uint256"}],"anonymous":false},{"type":"event","name":"Transfer","inputs":[{"name":"from","type":"address","indexed":true,"internalType":"address"},{"name":"to","type":"address","indexed":true,"internalType":"address"},{"name":"amount","type":"uint256","indexed":false,"internalType":"uint256"}],"anonymous":false}],"bytecode":{"object":"0x60e080604052346104d55761176b803803809161001c82856104d9565b83398101906080818303126104d55780516001600160401b0381116104d557826100479183016104fc565b602082015190926001600160401b0382116104d55761006d6060916100819385016104fc565b9261007a60408201610551565b5001610551565b82516001600160401b0381116102d15761009b5f54610565565b601f8111610486575b506020601f821160011461042557819293945f9261041a575b50508160011b915f199060031b1c1916175f555b81516001600160401b0381116102d1576100ec600154610565565b601f81116103b7575b50602092601f821160011461035657928192935f9261034b575b50508160011b915f199060031b1c1916176001555b60126080524660a0526040515f905f54918161013f84610565565b9182825260208201946001811690815f1461032f57506001146102e5575b610169925003826104d9565b51902060405160208101917f8b73c3c69bb8fe3d512ecc4cf759cc79239f7b179b0ffacaa9a75d522b39400f835260408201527fc89efdaa54c0f20c7adf612882df0950f5a951637e0307cdcb4c672f298b8bc660608201524660808201523060a082015260a081526101dd60c0826104d9565b51902060c052600680546001600160a01b03191633908117909155604051905f7f8be0079c531659141344cd1fd0a4f28419497f9722a3daafe3b4186f6b6457e08180a3608081016001600160401b038111828210176102d157600a91606091604052683635c9adc5dea000008152681b1ae4d6e2ef500000602082015261012c60408201520152683635c9adc5dea00000600a55681b1ae4d6e2ef500000600b5561012c600c55600a600d55603260105560018060a01b031660018060a01b031960115416176011556040516111ad908161059e823960805181610a92015260a05181610de5015260c05181610e0b0152f35b634e487b7160e01b5f52604160045260245ffd5b505f80805290915f51602061174b5f395f51905f525b8183106103135750509060206101699282010161015d565b60209193508060019154838588010152019101909183926102fb565b60ff191686525061016992151560051b8201602001905061015d565b015190505f8061010f565b601f1982169360015f52805f20915f5b86811061039f5750836001959610610387575b505050811b01600155610124565b01515f1960f88460031b161c191690555f8080610379565b91926020600181928685015181550194019201610366565b60015f527fb10e2d527612073b26eecdfd717e6a320cf44b4afac2b0732d9fcbe2b7fa0cf6601f830160051c81019160208410610410575b601f0160051c01905b81811061040557506100f5565b5f81556001016103f8565b90915081906103ef565b015190505f806100bd565b601f198216905f8052805f20915f5b81811061046e57509583600195969710610456575b505050811b015f556100d1565b01515f1960f88460031b161c191690555f8080610449565b9192602060018192868b015181550194019201610434565b5f80525f51602061174b5f395f51905f52601f830160051c810191602084106104cb575b601f0160051c01905b8181106104c057506100a4565b5f81556001016104b3565b90915081906104aa565b5f80fd5b601f909101601f19168101906001600160401b038211908210176102d157604052565b81601f820112156104d5578051906001600160401b0382116102d15760405192610530601f8401601f1916602001856104d9565b828452602083830101116104d557815f9260208093018386015e8301015290565b51906001600160a01b03821682036104d557565b90600182811c92168015610593575b602083101461057f57565b634e487b7160e01b5f52602260045260245ffd5b91607f169161057456fe6080806040526004361015610012575f80fd5b5f3560e01c90816305618c1814610cf65750806306fdde0314610c54578063095ea7b314610bdb57806318160ddd14610bbe578063195afad314610ba157806323b872dd14610ab6578063313ce56714610a795780633644e51514610a575780633bbac57914610a1a5780633cd0ad0b146109e457806340c10f19146109445780634ada218b1461092257806370a08231146108ea578063790ca413146108cd578063798d5de31461085d5780637ecebe00146108255780638a8c523c146107c95780638da5cb5b146107a157806395d89b41146106c7578063992a7c831461069a5780639b7aa2b714610636578063a5d7d671146105d4578063a9059cbb14610541578063b33d8d1a14610519578063b9a45aac146104b9578063bf785c5f1461049e578063bfdae11b1461047f578063d505accf14610275578063d936547e14610238578063dd62ed3e146101e85763f2fde38b14610171575f80fd5b346101e45760203660031901126101e45761018a610da7565b600654906101a2336001600160a01b03841614610f5c565b6001600160a01b03166001600160a01b0319919091168117600655337f8be0079c531659141344cd1fd0a4f28419497f9722a3daafe3b4186f6b6457e05f80a3005b5f80fd5b346101e45760403660031901126101e457610201610da7565b610209610dbd565b6001600160a01b039182165f908152600460209081526040808320949093168252928352819020549051908152f35b346101e45760203660031901126101e4576001600160a01b03610259610da7565b165f526009602052602060ff60405f2054166040519015158152f35b346101e45760e03660031901126101e45761028e610da7565b610296610dbd565b6044356064359260843560ff81168091036101e45742851061043a5760805f916020936102c1610de2565b9060018060a01b03169687855260058652604085209889549960018b01905560405190878201927f6e71edae12b1b97f4d1f60370fef10105fa2faae0126114a169c64845d6126c984528a604084015260018060a01b03169a8b6060840152898784015260a083015260c082015260c0815261033e60e082610d47565b519020604051908682019261190160f01b8452602283015260428201526042815261036a606282610d47565b519020906040519182528482015260a435604082015260c435606082015282805260015afa1561042f575f516001600160a01b031680151580610426575b156103f0577f8c5be1e5ebec7d5bd14f71427d1e84f3dd0314c0f7b2291e5b200ac8c7c3b925916020915f526004825260405f20855f5282528060405f2055604051908152a3005b60405162461bcd60e51b815260206004820152600e60248201526d24a72b20a624a22fa9a4a3a722a960911b6044820152606490fd5b508281146103a8565b6040513d5f823e3d90fd5b60405162461bcd60e51b815260206004820152601760248201527f5045524d49545f444541444c494e455f455850495245440000000000000000006044820152606490fd5b346101e4575f3660031901126101e457602060405164e8d4a510008152f35b346101e4575f3660031901126101e457602060405160058152f35b346101e45760403660031901126101e4576104d2610da7565b602435908115158092036101e4576104f560018060a01b03600654163314610f5c565b60018060a01b03165f52600960205260405f209060ff801983541691161790555f80f35b346101e4575f3660031901126101e4576011546040516001600160a01b039091168152602090f35b346101e45760403660031901126101e45761055a610da7565b60243590610569828233610faf565b335f52600360205260405f2061058083825461116a565b905560018060a01b031690815f52600360205260405f208181540190556040519081527fddf252ad1be2c89b69c2b068fc378daa952ba7f163c4a11628f55a4df523b3ef60203392a3602060405160018152f35b346101e45760203660031901126101e4576105ed610da7565b61060260018060a01b03600654163314610f5c565b6001600160a01b03165f90815260086020526040812081815560018101829055600281018290556003810182905560040155005b346101e45760203660031901126101e4576001600160a01b03610657610da7565b165f52600860205260a060405f20805490600181015490600281015460046003830154920154926040519485526020850152604084015260608301526080820152f35b346101e45760603660031901126101e4576106b3610da7565b506106bc610dd3565b5060206040515f8152f35b346101e4575f3660031901126101e4576040515f6001546106e781610d0f565b808452906001811690811561077d575060011461071f575b61071b8361070f81850382610d47565b60405191829182610d7d565b0390f35b60015f9081527fb10e2d527612073b26eecdfd717e6a320cf44b4afac2b0732d9fcbe2b7fa0cf6939250905b8082106107635750909150810160200161070f6106ff565b91926001816020925483858801015201910190929161074b565b60ff191660208086019190915291151560051b8401909101915061070f90506106ff565b346101e4575f3660031901126101e4576006546040516001600160a01b039091168152602090f35b346101e4575f3660031901126101e4576107ee60018060a01b03600654163314610f5c565b600160ff19600e541617600e5542600f557f799663458a5ef2936f7fa0c99b3336c69c25890f82974f04e811e5bb359186c75f80a1005b346101e45760203660031901126101e4576001600160a01b03610846610da7565b165f526005602052602060405f2054604051908152f35b346101e45760803660031901126101e4577f165ce1bab4586c12e7995a7a12e6e1582fefb35155f79e0b71bcae5964d8a93860406004356024356108ac60018060a01b03600654163314610f5c565b81600a5580600b55604435600c55606435600d5582519182526020820152a1005b346101e4575f3660031901126101e4576020600f54604051908152f35b346101e45760203660031901126101e4576001600160a01b0361090b610da7565b165f526003602052602060405f2054604051908152f35b346101e4575f3660031901126101e457602060ff600e54166040519015158152f35b346101e45760403660031901126101e45761095d610da7565b6024359061097660018060a01b03600654163314610f5c565b600254908282018092116109d05760207fddf252ad1be2c89b69c2b068fc378daa952ba7f163c4a11628f55a4df523b3ef915f9360025560018060a01b0316938484526003825260408420818154019055604051908152a3005b634e487b7160e01b5f52601160045260245ffd5b346101e4575f3660031901126101e4576080600a54600b54600c54600d5491604051938452602084015260408301526060820152f35b346101e45760203660031901126101e4576001600160a01b03610a3b610da7565b165f526007602052602060ff60405f2054166040519015158152f35b346101e4575f3660031901126101e4576020610a71610de2565b604051908152f35b346101e4575f3660031901126101e457602060405160ff7f0000000000000000000000000000000000000000000000000000000000000000168152f35b346101e45760603660031901126101e457610acf610da7565b610ad7610dbd565b7fddf252ad1be2c89b69c2b068fc378daa952ba7f163c4a11628f55a4df523b3ef602060443593610b09858583610faf565b6001600160a01b03165f81815260048352604080822033835284529020549093908560018201610b7c575b5050835f526003825260405f20610b4c86825461116a565b90556001600160a01b03165f818152600383526040908190208054870190555194855293a3602060405160018152f35b610b859161116a565b5f85815260048452604080822033835285529020558585610b34565b346101e4575f3660031901126101e4576020601054604051908152f35b346101e4575f3660031901126101e4576020600254604051908152f35b346101e45760403660031901126101e457610bf4610da7565b335f8181526004602090815260408083206001600160a01b03909516808452948252918290206024359081905591519182527f8c5be1e5ebec7d5bd14f71427d1e84f3dd0314c0f7b2291e5b200ac8c7c3b92591a3602060405160018152f35b346101e4575f3660031901126101e4576040515f5f54610c7381610d0f565b808452906001811690811561077d5750600114610c9a5761071b8361070f81850382610d47565b5f8080527f290decd9548b62a8d60345a988386fc84ba6bc95484008f6362f93160ef3e563939250905b808210610cdc5750909150810160200161070f6106ff565b919260018160209254838588010152019101909291610cc4565b346101e4575f3660031901126101e45780600260209252f35b90600182811c92168015610d3d575b6020831014610d2957565b634e487b7160e01b5f52602260045260245ffd5b91607f1691610d1e565b90601f8019910116810190811067ffffffffffffffff821117610d6957604052565b634e487b7160e01b5f52604160045260245ffd5b602060409281835280519182918282860152018484015e5f828201840152601f01601f1916010190565b600435906001600160a01b03821682036101e457565b602435906001600160a01b03821682036101e457565b6044359081151582036101e457565b467f000000000000000000000000000000000000000000000000000000000000000003610e2d577f000000000000000000000000000000000000000000000000000000000000000090565b6040515f905f549181610e3f84610d0f565b9182825260208201946001811690815f14610f405750600114610ee3575b610e6992500382610d47565b51902060405160208101917f8b73c3c69bb8fe3d512ecc4cf759cc79239f7b179b0ffacaa9a75d522b39400f835260408201527fc89efdaa54c0f20c7adf612882df0950f5a951637e0307cdcb4c672f298b8bc660608201524660808201523060a082015260a08152610edd60c082610d47565b51902090565b505f80805290917f290decd9548b62a8d60345a988386fc84ba6bc95484008f6362f93160ef3e5635b818310610f24575050906020610e6992820101610e5d565b6020919350806001915483858801015201910190918392610f0c565b60ff1916865250610e6992151560051b82016020019050610e5d565b15610f6357565b60405162461bcd60e51b815260206004820152600c60248201526b15539055551213d49256915160a21b6044820152606490fd5b908160209103126101e4575180151581036101e45790565b6001600160a01b031680151580611152575b6110a6575b506001600160a01b03169081610fda575050565b601154604051633b5add1560e21b81523060048201526024810193909352604483019190915260016064830152602090829060849082906001600160a01b03165afa90811561042f575f91611077575b501561103257565b60405162461bcd60e51b815260206004820152601860248201527f42616c616e636520776f756c6420657863656564206d617800000000000000006044820152606490fd5b611099915060203d60201161109f575b6110918183610d47565b810190610f97565b5f61102a565b503d611087565b60115460405163665219cf60e11b8152306004820152602481019290925260448201849052602090829060649082905f906001600160a01b03165af190811561042f575f91611133575b50156110fc575f610fc6565b60405162461bcd60e51b815260206004820152600f60248201526e14d95b1b081c995cdd1c9a58dd1959608a1b6044820152606490fd5b61114c915060203d60201161109f576110918183610d47565b5f6110f0565b506006546001600160a01b0383811691161415610fc1565b919082039182116109d05756fea2646970667358221220b2ebf954000f1c22afb8fe316778b1b9ddde61a6ddddc31a9fc86ee019cd2afb64736f6c634300081c0033290decd9548b62a8d60345a988386fc84ba6bc95484008f6362f93160ef3e563","linkReferences":{}},"methodIdentifiers":{"DOMAIN_SEPARATOR()":"3644e515","MIN_TIME_BETWEEN_TX()":"05618c18","SUSPICIOUS_GAS_PRICE()":"bfdae11b","SUSPICIOUS_TX_COUNT()":"bf785c5f","allowance(address,address)":"dd62ed3e","antiRugPull()":"b33d8d1a","approve(address,uint256)":"095ea7b3","balanceOf(address)":"70a08231","botPenaltyFee()":"195afad3","checkAndUpdateTrading(address,uint256,bool)":"992a7c83","clearTradingHistory(address)":"a5d7d671","decimals()":"313ce567","enableTrading()":"8a8c523c","isBot(address)":"3bbac579","launchTime()":"790ca413","mint(address,uint256)":"40c10f19","name()":"06fdde03","nonces(address)":"7ecebe00","owner()":"8da5cb5b","permit(address,address,uint256,uint256,uint8,bytes32,bytes32)":"d505accf","symbol()":"95d89b41","totalSupply()":"18160ddd","tradingEnabled()":"4ada218b","tradingLimit()":"3cd0ad0b","transfer(address,uint256)":"a9059cbb","transferFrom(address,address,uint256)":"23b872dd","transferOwnership(address)":"f2fde38b","updateTradingLimits(uint256,uint256,uint256,uint256)":"798d5de3","userTrading(address)":"9b7aa2b7","whitelistAddress(address,bool)":"b9a45aac","whitelisted(address)":"d936547e"},"id":37}