{"abi":[{"type":"constructor","inputs":[{"name":"_authority","type":"address","internalType":"address"}],"stateMutability":"nonpayable"},{"type":"receive","stateMutability":"payable"},{"type":"function","name":"DOMAIN_SEPARATOR","inputs":[],"outputs":[{"name":"","type":"bytes32","internalType":"bytes32"}],"stateMutability":"view"},{"type":"function","name":"MAX_SLIPPAGE_BPS","inputs":[],"outputs":[{"name":"","type":"uint256","internalType":"uint256"}],"stateMutability":"view"},{"type":"function","name":"MINIMUM_LIQUIDITY","inputs":[],"outputs":[{"name":"","type":"uint256","internalType":"uint256"}],"stateMutability":"view"},{"type":"function","name":"MIN_BLOCKS_DELAY","inputs":[],"outputs":[{"name":"","type":"uint256","internalType":"uint256"}],"stateMutability":"view"},{"type":"function","name":"TIMELOCK_DELAY","inputs":[],"outputs":[{"name":"","type":"uint256","internalType":"uint256"}],"stateMutability":"view"},{"type":"function","name":"addLiquidity","inputs":[{"name":"tokenAmount","type":"uint256","internalType":"uint256"}],"outputs":[{"name":"liquidity","type":"uint256","internalType":"uint256"}],"stateMutability":"payable"},{"type":"function","name":"allowance","inputs":[{"name":"","type":"address","internalType":"address"},{"name":"","type":"address","internalType":"address"}],"outputs":[{"name":"","type":"uint256","internalType":"uint256"}],"stateMutability":"view"},{"type":"function","name":"approve","inputs":[{"name":"spender","type":"address","internalType":"address"},{"name":"amount","type":"uint256","internalType":"uint256"}],"outputs":[{"name":"","type":"bool","internalType":"bool"}],"stateMutability":"nonpayable"},{"type":"function","name":"authority","inputs":[],"outputs":[{"name":"","type":"address","internalType":"contract Authority"}],"stateMutability":"view"},{"type":"function","name":"balanceOf","inputs":[{"name":"","type":"address","internalType":"address"}],"outputs":[{"name":"","type":"uint256","internalType":"uint256"}],"stateMutability":"view"},{"type":"function","name":"decimals","inputs":[],"outputs":[{"name":"","type":"uint8","internalType":"uint8"}],"stateMutability":"view"},{"type":"function","name":"getAmountOut","inputs":[{"name":"amountIn","type":"uint256","internalType":"uint256"},{"name":"reserveIn","type":"uint256","internalType":"uint256"},{"name":"reserveOut","type":"uint256","internalType":"uint256"}],"outputs":[{"name":"amountOut","type":"uint256","internalType":"uint256"}],"stateMutability":"view"},{"type":"function","name":"hydra","inputs":[],"outputs":[{"name":"","type":"address","internalType":"contract HydraOpenZeppelin"}],"stateMutability":"view"},{"type":"function","name":"hydraConfig","inputs":[],"outputs":[{"name":"sigmoidSteepness","type":"uint32","internalType":"uint32"},{"name":"sigmoidWeight","type":"uint64","internalType":"uint64"},{"name":"gaussianWidth","type":"uint64","internalType":"uint64"},{"name":"gaussianWeight","type":"uint64","internalType":"uint64"},{"name":"rationalPower","type":"uint32","internalType":"uint32"},{"name":"rationalWeight","type":"uint64","internalType":"uint64"}],"stateMutability":"view"},{"type":"function","name":"initialize","inputs":[{"name":"_memeCoin","type":"address","internalType":"address"}],"outputs":[],"stateMutability":"nonpayable"},{"type":"function","name":"lastBlockTraded","inputs":[{"name":"","type":"address","internalType":"address"}],"outputs":[{"name":"","type":"uint256","internalType":"uint256"}],"stateMutability":"view"},{"type":"function","name":"lastPauseTime","inputs":[],"outputs":[{"name":"","type":"uint256","internalType":"uint256"}],"stateMutability":"view"},{"type":"function","name":"memeCoin","inputs":[],"outputs":[{"name":"","type":"address","internalType":"contract ERC20"}],"stateMutability":"view"},{"type":"function","name":"name","inputs":[],"outputs":[{"name":"","type":"string","internalType":"string"}],"stateMutability":"view"},{"type":"function","name":"nonces","inputs":[{"name":"","type":"address","internalType":"address"}],"outputs":[{"name":"","type":"uint256","internalType":"uint256"}],"stateMutability":"view"},{"type":"function","name":"owner","inputs":[],"outputs":[{"name":"","type":"address","internalType":"address"}],"stateMutability":"view"},{"type":"function","name":"pause","inputs":[],"outputs":[],"stateMutability":"nonpayable"},{"type":"function","name":"paused","inputs":[],"outputs":[{"name":"","type":"bool","internalType":"bool"}],"stateMutability":"view"},{"type":"function","name":"permit","inputs":[{"name":"owner","type":"address","internalType":"address"},{"name":"spender","type":"address","internalType":"address"},{"name":"value","type":"uint256","internalType":"uint256"},{"name":"deadline","type":"uint256","internalType":"uint256"},{"name":"v","type":"uint8","internalType":"uint8"},{"name":"r","type":"bytes32","internalType":"bytes32"},{"name":"s","type":"bytes32","internalType":"bytes32"}],"outputs":[],"stateMutability":"nonpayable"},{"type":"function","name":"poolAuthority","inputs":[],"outputs":[{"name":"","type":"address","internalType":"address"}],"stateMutability":"view"},{"type":"function","name":"proposeChange","inputs":[{"name":"paramId","type":"bytes32","internalType":"bytes32"},{"name":"value","type":"uint256","internalType":"uint256"}],"outputs":[],"stateMutability":"nonpayable"},{"type":"function","name":"removeLiquidity","inputs":[{"name":"liquidity","type":"uint256","internalType":"uint256"}],"outputs":[{"name":"ethAmount","type":"uint256","internalType":"uint256"},{"name":"tokenAmount","type":"uint256","internalType":"uint256"}],"stateMutability":"nonpayable"},{"type":"function","name":"setAuthority","inputs":[{"name":"newAuthority","type":"address","internalType":"contract Authority"}],"outputs":[],"stateMutability":"nonpayable"},{"type":"function","name":"slippageLimit","inputs":[],"outputs":[{"name":"","type":"uint256","internalType":"uint256"}],"stateMutability":"view"},{"type":"function","name":"swapExactETHForTokens","inputs":[],"outputs":[{"name":"tokenAmount","type":"uint256","internalType":"uint256"},{"name":"expectedPrice","type":"uint256","internalType":"uint256"}],"stateMutability":"payable"},{"type":"function","name":"swapExactTokensForETH","inputs":[{"name":"tokenAmount","type":"uint256","internalType":"uint256"}],"outputs":[{"name":"ethAmount","type":"uint256","internalType":"uint256"},{"name":"expectedPrice","type":"uint256","internalType":"uint256"}],"stateMutability":"nonpayable"},{"type":"function","name":"symbol","inputs":[],"outputs":[{"name":"","type":"string","internalType":"string"}],"stateMutability":"view"},{"type":"function","name":"timelockDeadlines","inputs":[{"name":"","type":"bytes32","internalType":"bytes32"}],"outputs":[{"name":"","type":"uint256","internalType":"uint256"}],"stateMutability":"view"},{"type":"function","name":"timelockExecuted","inputs":[{"name":"","type":"bytes32","internalType":"bytes32"}],"outputs":[{"name":"","type":"bool","internalType":"bool"}],"stateMutability":"view"},{"type":"function","name":"totalSupply","inputs":[],"outputs":[{"name":"","type":"uint256","internalType":"uint256"}],"stateMutability":"view"},{"type":"function","name":"transfer","inputs":[{"name":"to","type":"address","internalType":"address"},{"name":"amount","type":"uint256","internalType":"uint256"}],"outputs":[{"name":"","type":"bool","internalType":"bool"}],"stateMutability":"nonpayable"},{"type":"function","name":"transferFrom","inputs":[{"name":"from","type":"address","internalType":"address"},{"name":"to","type":"address","internalType":"address"},{"name":"amount","type":"uint256","internalType":"uint256"}],"outputs":[{"name":"","type":"bool","internalType":"bool"}],"stateMutability":"nonpayable"},{"type":"function","name":"transferOwnership","inputs":[{"name":"newOwner","type":"address","internalType":"address"}],"outputs":[],"stateMutability":"nonpayable"},{"type":"function","name":"unpause","inputs":[],"outputs":[],"stateMutability":"nonpayable"},{"type":"function","name":"updateSlippageLimit","inputs":[{"name":"newLimit","type":"uint256","internalType":"uint256"}],"outputs":[],"stateMutability":"nonpayable"},{"type":"event","name":"Approval","inputs":[{"name":"owner","type":"address","indexed":true,"internalType":"address"},{"name":"spender","type":"address","indexed":true,"internalType":"address"},{"name":"amount","type":"uint256","indexed":false,"internalType":"uint256"}],"anonymous":false},{"type":"event","name":"AuthorityUpdated","inputs":[{"name":"user","type":"address","indexed":true,"internalType":"address"},{"name":"newAuthority","type":"address","indexed":true,"internalType":"contract Authority"}],"anonymous":false},{"type":"event","name":"LiquidityAdded","inputs":[{"name":"provider","type":"address","indexed":true,"internalType":"address"},{"name":"ethAmount","type":"uint256","indexed":false,"internalType":"uint256"},{"name":"tokenAmount","type":"uint256","indexed":false,"internalType":"uint256"},{"name":"liquidity","type":"uint256","indexed":false,"internalType":"uint256"}],"anonymous":false},{"type":"event","name":"LiquidityRemoved","inputs":[{"name":"provider","type":"address","indexed":true,"internalType":"address"},{"name":"ethAmount","type":"uint256","indexed":false,"internalType":"uint256"},{"name":"tokenAmount","type":"uint256","indexed":false,"internalType":"uint256"},{"name":"liquidity","type":"uint256","indexed":false,"internalType":"uint256"}],"anonymous":false},{"type":"event","name":"OwnershipTransferred","inputs":[{"name":"user","type":"address","indexed":true,"internalType":"address"},{"name":"newOwner","type":"address","indexed":true,"internalType":"address"}],"anonymous":false},{"type":"event","name":"PoolPaused","inputs":[{"name":"admin","type":"address","indexed":true,"internalType":"address"}],"anonymous":false},{"type":"event","name":"PoolUnpaused","inputs":[{"name":"admin","type":"address","indexed":true,"internalType":"address"}],"anonymous":false},{"type":"event","name":"SlippageLimitUpdated","inputs":[{"name":"newLimit","type":"uint256","indexed":false,"internalType":"uint256"}],"anonymous":false},{"type":"event","name":"Swap","inputs":[{"name":"user","type":"address","indexed":true,"internalType":"address"},{"name":"ethToToken","type":"bool","indexed":false,"internalType":"bool"},{"name":"amountIn","type":"uint256","indexed":false,"internalType":"uint256"},{"name":"amountOut","type":"uint256","indexed":false,"internalType":"uint256"}],"anonymous":false},{"type":"event","name":"TimelockExecuted","inputs":[{"name":"proposalId","type":"bytes32","indexed":true,"internalType":"bytes32"}],"anonymous":false},{"type":"event","name":"TimelockProposed","inputs":[{"name":"proposalId","type":"bytes32","indexed":true,"internalType":"bytes32"},{"name":"executeAfter","type":"uint256","indexed":false,"internalType":"uint256"}],"anonymous":false},{"type":"event","name":"Transfer","inputs":[{"name":"from","type":"address","indexed":true,"internalType":"address"},{"name":"to","type":"address","indexed":true,"internalType":"address"},{"name":"amount","type":"uint256","indexed":false,"internalType":"uint256"}],"anonymous":false}],"bytecode":{"object":"0x610100806040523461046f576020816138e680380380916100208285610678565b83398101031261046f57516001600160a01b0381169081810361046f576040519161004c604084610678565b600d83526c4d656d654c697175696469747960981b602084015260405191610075604084610678565b600683526504d454d454c560d41b602084015283516001600160401b03811161045b576100a25f546106c0565b601f8111610629575b50602094601f82116001146105c8579481929394955f926105bd575b50508160011b915f199060031b1c1916175f555b82516001600160401b03811161045b576100f66001546106c0565b601f811161055a575b506020601f82116001146104f757819293945f926104ec575b50508160011b915f199060031b1c1916176001555b60126080524660a0526040515f905f549181610148846106c0565b9182825260208201946001811690815f146104d05750600114610486575b61017292500382610678565b51902060405160208101917f8b73c3c69bb8fe3d512ecc4cf759cc79239f7b179b0ffacaa9a75d522b39400f835260408201527fc89efdaa54c0f20c7adf612882df0950f5a951637e0307cdcb4c672f298b8bc660608201524660808201523060a082015260a081526101e660c082610678565b51902060c05260068054336001600160a01b0319918216811790925560078054909116841790556040519290807f8be0079c531659141344cd1fd0a4f28419497f9722a3daafe3b4186f6b6457e05f80a3337fa3396fd7f6e0a21b50e5089d2da70d5ac0a3bbbd1f617a93f134b763899801985f80a3600160088190556064600d55600f5560e052610d3e8181016001600160401b0381118382101761045b578291612b88833903905ff0801561047b57601180546001600160a01b0319166001600160a01b039092169182179055604051632a5eb77560e21b81529060c090829060049082905afa90811561047b575f916103b4575b50805160208083015160408085015160608087015160808801519490951b6bffffffffffffffff000000001663ffffffff9690961695909517941b73ffffffffffffffff000000000000000000000000169390931760a092831b600160a01b600160e01b03161760e09190911b6001600160e01b0319161760125590910151601380546001600160401b0319166001600160401b03929092169190911790555161248f90816106f982396080518161188f015260a05181611e00015260c05181611e26015260e05181818161076c0152610d060152f35b905060c0813d60c011610473575b816103cf60c09383610678565b8101031261046f576040519060c082016001600160401b0381118382101761045b576104509160a0916040526104048161069b565b8452610412602082016106ac565b6020850152610423604082016106ac565b6040850152610434606082016106ac565b60608501526104456080820161069b565b6080850152016106ac565b60a08201525f6102dd565b634e487b7160e01b5f52604160045260245ffd5b5f80fd5b3d91506103c2565b6040513d5f823e3d90fd5b505f80805290915f5160206138c65f395f51905f525b8183106104b457505090602061017292820101610166565b602091935080600191548385880101520191019091839261049c565b60ff191686525061017292151560051b82016020019050610166565b015190505f80610118565b601f1982169060015f52805f20915f5b8181106105425750958360019596971061052a575b505050811b0160015561012d565b01515f1960f88460031b161c191690555f808061051c565b9192602060018192868b015181550194019201610507565b60015f527fb10e2d527612073b26eecdfd717e6a320cf44b4afac2b0732d9fcbe2b7fa0cf6601f830160051c810191602084106105b3575b601f0160051c01905b8181106105a857506100ff565b5f815560010161059b565b9091508190610592565b015190505f806100c7565b601f198216955f8052805f20915f5b888110610611575083600195969798106105f9575b505050811b015f556100db565b01515f1960f88460031b161c191690555f80806105ec565b919260206001819286850151815501940192016105d7565b5f80525f5160206138c65f395f51905f52601f830160051c8101916020841061066e575b601f0160051c01905b81811061066357506100ab565b5f8155600101610656565b909150819061064d565b601f909101601f19168101906001600160401b0382119082101761045b57604052565b519063ffffffff8216820361046f57565b51906001600160401b038216820361046f57565b90600182811c921680156106ee575b60208310146106da57565b634e487b7160e01b5f52602260045260245ffd5b91607f16916106cf56fe6080604052600436101561001a575b3615610018575f80fd5b005b5f358060e01c8063054d50d414611ae357806306fdde0314611a41578063095ea7b3146119c857806318160ddd146119ab57806321d8ce201461198357806323b872dd146118b3578063313ce567146118765780633644e515146118545780633f4ba83a146117bf57806351c6590a146115705780635b07871a146115535780635ba1c1a9146115365780635c975abb1461151457806370a08231146114dc57806371f1a3a6146114b45780637a9e5e4b146113ad5780637ecebe00146113755780637f92c8a6146111715780638456cb59146110d25780638da5cb5b146110aa578063910b7fdd1461108057806391b4ded91461106357806395d89b4114610f895780639c8f9f2314610d35578063a320dffe14610cf1578063a87c325114610ad1578063a9059cbb14610a5c578063ae126abd14610997578063b8b8abba1461095f578063ba9a7a561461093d578063bb2e2d8614610922578063bc74f046146108f3578063bf7e214f146108cb578063c4d66de814610751578063d505accf14610552578063dd62ed3e14610502578063e229cd76146104e7578063f281cc14146102d3578063f2ddb1171461025c5763f2fde38b146101dd575061000e565b346102585760203660031901126102585761021261020d6101fc611b9f565b926001600160e01b03191633612124565b611f77565b600680546001600160a01b0319166001600160a01b03929092169182179055337f8be0079c531659141344cd1fd0a4f28419497f9722a3daafe3b4186f6b6457e05f80a3005b5f80fd5b34610258575f3660031901126102585760c060125467ffffffffffffffff601354166040519163ffffffff8116835267ffffffffffffffff8160201c16602084015267ffffffffffffffff8160601c16604084015267ffffffffffffffff8160a01c16606084015260e01c608083015260a0820152f35b5f366003190112610258576102ec600160085414611fb2565b60026008556103006002600f54141561208c565b6002600f5561031460ff6009541615611feb565b335f52600e60205260405f20546001810180911161045c57610337904311612028565b335f52600e6020524360405f205534156104ad576103553447611df0565b6010546040516370a0823160e01b81523060048201526001600160a01b039091169190602081602481865afa9081156104a2575f91610470575b50670de0b6b3a7640000820290828204670de0b6b3a7640000148315171561045c576103be816103c593611bde565b9234611bfc565b906103d18215156120d8565b670de0b6b3a7640000340292348404670de0b6b3a76400000361045c578261040f9161040861040283604098611bde565b85612275565b3390612389565b82516001815234602082015282848201527fbfd50a04f1e6e4aee344f5d0e7f15d74d0dbb58cd1f711daa6463094ca9508cd60603392a26001600f55600160085582519182526020820152f35b634e487b7160e01b5f52601160045260245ffd5b90506020813d60201161049a575b8161048b60209383611b3f565b8101031261025857518361038f565b3d915061047e565b6040513d5f823e3d90fd5b60405162461bcd60e51b8152602060048201526012602482015271125b9d985b1a590811551208185b5bdd5b9d60721b6044820152606490fd5b34610258575f36600319011261025857602060405160648152f35b346102585760403660031901126102585761051b611b9f565b610523611bb5565b6001600160a01b039182165f908152600460209081526040808320949093168252928352819020549051908152f35b346102585760e03660031901126102585761056b611b9f565b610573611bb5565b6044356064359260843560ff81168091036102585742851061070c5760805f9160209361059e611dfd565b9060018060a01b03169687855260058652604085209889549960018b01905560405190878201927f6e71edae12b1b97f4d1f60370fef10105fa2faae0126114a169c64845d6126c984528a604084015260018060a01b03169a8b6060840152898784015260a083015260c082015260c0815261061b60e082611b3f565b519020604051908682019261190160f01b84526022830152604282015260428152610647606282611b3f565b519020906040519182528482015260a435604082015260c435606082015282805260015afa156104a2575f516001600160a01b031680151580610703575b156106cd577f8c5be1e5ebec7d5bd14f71427d1e84f3dd0314c0f7b2291e5b200ac8c7c3b925916020915f526004825260405f20855f5282528060405f2055604051908152a3005b60405162461bcd60e51b815260206004820152600e60248201526d24a72b20a624a22fa9a4a3a722a960911b6044820152606490fd5b50828114610685565b60405162461bcd60e51b815260206004820152601760248201527f5045524d49545f444541444c494e455f455850495245440000000000000000006044820152606490fd5b346102585760203660031901126102585761076a611b9f565b7f00000000000000000000000000000000000000000000000000000000000000006001600160a01b0316330361089557601054906001600160a01b03821661085a576001600160a01b031690811561081d576040516318160ddd60e01b8152602081600481865afa80156104a2576107ee575b506001600160a01b03191617601055005b6020813d602011610815575b8161080760209383611b3f565b8101031261025857516107dd565b3d91506107fa565b60405162461bcd60e51b8152602060048201526015602482015274496e76616c696420746f6b656e206164647265737360581b6044820152606490fd5b60405162461bcd60e51b8152602060048201526013602482015272105b1c9958591e481a5b9a5d1a585b1a5e9959606a1b6044820152606490fd5b60405162461bcd60e51b815260206004820152600e60248201526d139bdd08185d5d1a1bdc9a5e995960921b6044820152606490fd5b34610258575f366003190112610258576007546040516001600160a01b039091168152602090f35b34610258576020366003190112610258576004355f52600c602052602060ff60405f2054166040519015158152f35b34610258575f36600319011261025857602060405160018152f35b34610258575f36600319011261025857602060405167016345785d8a00008152f35b34610258576020366003190112610258576001600160a01b03610980611b9f565b165f52600e602052602060405f2054604051908152f35b5034610258576040366003190112610258576109c261020d6004359263ffffffff60e01b1633612124565b805f52600b60205260405f2054610a1e5762015180420180421161045c575f828152600b602090815260409182902083905590519182527fd89b4850f2a8287a3c0455a59daf69aa19519eeeb204834edf529e4caa5ca87e91a2005b60405162461bcd60e51b81526020600482015260166024820152754368616e676520616c72656164792070656e64696e6760501b6044820152606490fd5b3461025857604036600319011261025857610a75611b9f565b60243590335f52600360205260405f20610a90838254611df0565b905560018060a01b031690815f52600360205260405f208181540190556040519081525f51602061243a5f395f51905f5260203392a3602060405160018152f35b503461025857602036600319011261025857610afc61020d6004359263ffffffff60e01b1633612124565b5f51602061241a5f395f51905f525f52600b6020527f0944a989dc00d8379ca5b71d7a6dadb8d34ad2071ed4e969f7bbc6d960309c80548015610cb7574210610c7b575f51602061241a5f395f51905f525f52600c6020527ffed054e23aaf736bc5e22127ec20675fe717e8398dfefde120f0de4da78662695460ff16610c43575f51602061241a5f395f51905f525f52600c60205260405f20600160ff198254161790556040515f51602061241a5f395f51905f527f608879471643fec8a3d053e61fed9b5bb710b0ae4b697d1678d92eb5ea6d00be5f80a260648211610c0f577fcf7f7495105ceec35e1d46b5a1330650da881193032a0a846d4c4d2e8d29930460208380600d55604051908152a1005b62461bcd60e51b815260206004820152600f60248201526e45786365656473206d6178696d756d60881b6044820152606490fd5b60405162461bcd60e51b815260206004820152601060248201526f105b1c9958591e48195e1958dd5d195960821b6044820152606490fd5b60405162461bcd60e51b8152602060048201526014602482015273151a5b595b1bd8dac81b9bdd08195e1c1a5c995960621b6044820152606490fd5b60405162461bcd60e51b81526020600482015260126024820152714e6f2070726f706f73616c2065786973747360701b6044820152606490fd5b34610258575f366003190112610258576040517f00000000000000000000000000000000000000000000000000000000000000006001600160a01b03168152602090f35b3461025857602036600319011261025857600435610d57600160085414611fb2565b6002600855610d6b60ff6009541615611feb565b335f52600e60205260405f20546001810180911161045c57610d8e904311612028565b335f52600e6020524360405f20558015610f44576010546040516370a0823160e01b8152306004820152904790602090839060249082906001600160a01b03165afa9182156104a2575f92610f0e575b50610df8610df8610dfd610e049360025493849188611bcb565b611bde565b9385611bcb565b81151580610f05575b15610ec757604092335f526003602052835f20610e2b828254611df0565b905580600254036002555f84518281525f51602061243a5f395f51905f5260203392a3610e58833361233f565b601054610e7190839033906001600160a01b0316612389565b7f1dc8bb69df2b8e91fbdcbfcf93d951b3f0000f085a95fe3f7946d6161439245d845180610eb333948688846040919493926060820195825260208201520152565b0390a2600160085582519182526020820152f35b60405162461bcd60e51b8152602060048201526016602482015275496e73756666696369656e74206c697175696469747960501b6044820152606490fd5b50801515610e0d565b9091506020813d602011610f3c575b81610f2a60209383611b3f565b81010312610258575190610df8610dde565b3d9150610f1d565b60405162461bcd60e51b815260206004820152601860248201527f496e76616c6964206c697175696469747920616d6f756e7400000000000000006044820152606490fd5b34610258575f366003190112610258576040515f600154610fa981611b07565b808452906001811690811561103f5750600114610fe1575b610fdd83610fd181850382611b3f565b60405191829182611b75565b0390f35b60015f9081527fb10e2d527612073b26eecdfd717e6a320cf44b4afac2b0732d9fcbe2b7fa0cf6939250905b80821061102557509091508101602001610fd1610fc1565b91926001816020925483858801015201910190929161100d565b60ff191660208086019190915291151560051b84019091019150610fd19050610fc1565b34610258575f366003190112610258576020600a54604051908152f35b34610258576020366003190112610258576004355f52600b602052602060405f2054604051908152f35b34610258575f366003190112610258576006546040516001600160a01b039091168152602090f35b5034610258575f366003190112610258576110fb9061020d906001600160e01b03191633612124565b60095460ff811661113b5760ff191660011760095542600a55337fd971f597c759bbab7e07dc9b98eed49a71a525608003fc6c2fba4248359847035f80a2005b60405162461bcd60e51b815260206004820152600e60248201526d105b1c9958591e481c185d5cd95960921b6044820152606490fd5b3461025857602036600319011261025857600435611193600160085414611fb2565b60026008556111a76002600f54141561208c565b6002600f556111bb60ff6009541615611feb565b335f52600e60205260405f20546001810180911161045c576111de904311612028565b335f52600e6020524360405f20558015611339576010546040516370a0823160e01b81523060048201526001600160a01b03909116919047602082602481875afa9182156104a2575f92611305575b50670de0b6b3a7640000820290828204670de0b6b3a7640000148315171561045c5761125c8161126393611bde565b9284611bfc565b9161126f8315156120d8565b670de0b6b3a7640000810293818504670de0b6b3a76400000361045c57816112af916112a66112a087604099611bde565b86612275565b309033906121d7565b6112b9833361233f565b8351905f8252602082015282848201527fbfd50a04f1e6e4aee344f5d0e7f15d74d0dbb58cd1f711daa6463094ca9508cd60603392a26001600f55600160085582519182526020820152f35b9091506020813d602011611331575b8161132160209383611b3f565b810103126102585751908461122d565b3d9150611314565b60405162461bcd60e51b8152602060048201526014602482015273125b9d985b1a59081d1bdad95b88185b5bdd5b9d60621b6044820152606490fd5b34610258576020366003190112610258576001600160a01b03611396611b9f565b165f526005602052602060405f2054604051908152f35b5034610258576020366003190112610258576004356001600160a01b0381169190829003610258576006546001600160a01b0316331490811561142a575b501561025857600780546001600160a01b03191682179055337fa3396fd7f6e0a21b50e5089d2da70d5ac0a3bbbd1f617a93f134b763899801985f80a3005b60075460405163b700961360e01b81523360048201523060248201526001600160e01b0319929092166044830152909150602090829060649082906001600160a01b03165afa9081156104a2575f91611485575b505f6113eb565b6114a7915060203d6020116114ad575b61149f8183611b3f565b810190612074565b5f61147e565b503d611495565b34610258575f366003190112610258576010546040516001600160a01b039091168152602090f35b34610258576020366003190112610258576001600160a01b036114fd611b9f565b165f526003602052602060405f2054604051908152f35b34610258575f36600319011261025857602060ff600954166040519015158152f35b34610258575f366003190112610258576020604051620151808152f35b34610258575f366003190112610258576020600d54604051908152f35b60203660031901126102585760043561158d600160085414611fb2565b60026008556115a160ff6009541615611feb565b335f52600e60205260405f20546001810180911161045c576115c4904311612028565b335f52600e6020524360405f20556115dd473490611df0565b6010546040516370a0823160e01b815230600482015290602090829060249082906001600160a01b03165afa9081156104a2575f9161178d575b50611778575067016345785d89ffff19340134811161045c5760025467016345785d8a0000810180911161045c5760025560015f52600360205260405f2067016345785d8a0000815401905560015f5f51602061243a5f395f51905f52602060405167016345785d8a00008152a35b8015611733576116a282303360018060a01b03601054166121d7565b6002549181830180931161045c57602092600255335f526003835260405f208281540190556040518281525f5f51602061243a5f395f51905f52853393a37f64b83944e79c3ce8d4c297411de637c3e102d064677aac0c163976ebdcd6f50e6040518061172385339534846040919493926060820195825260208201520152565b0390a26001600855604051908152f35b60405162461bcd60e51b815260206004820152601d60248201527f496e73756666696369656e74206c6971756964697479206d696e7465640000006044820152606490fd5b61178890610df860025434611bcb565b611686565b90506020813d6020116117b7575b816117a860209383611b3f565b81010312610258575183611617565b3d915061179b565b5034610258575f366003190112610258576117e89061020d906001600160e01b03191633612124565b60095460ff8116156118225760ff1916600955337f7ad28e69e140b6a700e01c343225b0dc7078e68583d56283e7917e07f81111235f80a2005b60405162461bcd60e51b815260206004820152600a602482015269139bdd081c185d5cd95960b21b6044820152606490fd5b34610258575f36600319011261025857602061186e611dfd565b604051908152f35b34610258575f36600319011261025857602060405160ff7f0000000000000000000000000000000000000000000000000000000000000000168152f35b34610258576060366003190112610258576118cc611b9f565b6118d4611bb5565b6001600160a01b039091165f818152600460209081526040808320338452825290912054604435935f51602061243a5f395f51905f529291856001820161195e575b5050835f526003825260405f2061192e868254611df0565b90556001600160a01b03165f818152600383526040908190208054870190555194855293a3602060405160018152f35b61196791611df0565b5f85815260048452604080822033835285529020558585611916565b34610258575f366003190112610258576011546040516001600160a01b039091168152602090f35b34610258575f366003190112610258576020600254604051908152f35b34610258576040366003190112610258576119e1611b9f565b335f8181526004602090815260408083206001600160a01b03909516808452948252918290206024359081905591519182527f8c5be1e5ebec7d5bd14f71427d1e84f3dd0314c0f7b2291e5b200ac8c7c3b92591a3602060405160018152f35b34610258575f366003190112610258576040515f5f54611a6081611b07565b808452906001811690811561103f5750600114611a8757610fdd83610fd181850382611b3f565b5f8080527f290decd9548b62a8d60345a988386fc84ba6bc95484008f6362f93160ef3e563939250905b808210611ac957509091508101602001610fd1610fc1565b919260018160209254838588010152019101909291611ab1565b3461025857606036600319011261025857602061186e604435602435600435611bfc565b90600182811c92168015611b35575b6020831014611b2157565b634e487b7160e01b5f52602260045260245ffd5b91607f1691611b16565b90601f8019910116810190811067ffffffffffffffff821117611b6157604052565b634e487b7160e01b5f52604160045260245ffd5b602060409281835280519182918282860152018484015e5f828201840152601f01601f1916010190565b600435906001600160a01b038216820361025857565b602435906001600160a01b038216820361025857565b8181029291811591840414171561045c57565b8115611be8570490565b634e487b7160e01b5f52601260045260245ffd5b918215611dab57811592831580611da2575b15611d6457670de0b6b3a76400008302838104670de0b6b3a76400001485171561045c57611c3e83602092611bde565b61014460018060a01b036011541694604051958693849263726a395b60e01b845289600485015260248401526044830152670de0b6b3a7640000606483015260125463ffffffff8116608484015267ffffffffffffffff81871c1660a484015267ffffffffffffffff8160601c1660c484015267ffffffffffffffff8160a01c1660e484015260e01c61010483015267ffffffffffffffff601354166101248301525afa9081156104a2575f91611d2e575b611cfa9250611bcb565b916103e58302928084046103e5149015171561045c576103e882029182046103e814171561045c57611d2b91611bde565b90565b90506020823d602011611d5c575b81611d4960209383611b3f565b8101031261025857611cfa915190611cf0565b3d9150611d3c565b60405162461bcd60e51b8152602060048201526016602482015275494e53554646494349454e545f4c495155494449545960501b6044820152606490fd5b50811515611c0e565b60405162461bcd60e51b815260206004820152601960248201527f494e53554646494349454e545f494e5055545f414d4f554e54000000000000006044820152606490fd5b9190820391821161045c57565b467f000000000000000000000000000000000000000000000000000000000000000003611e48577f000000000000000000000000000000000000000000000000000000000000000090565b6040515f905f549181611e5a84611b07565b9182825260208201946001811690815f14611f5b5750600114611efe575b611e8492500382611b3f565b51902060405160208101917f8b73c3c69bb8fe3d512ecc4cf759cc79239f7b179b0ffacaa9a75d522b39400f835260408201527fc89efdaa54c0f20c7adf612882df0950f5a951637e0307cdcb4c672f298b8bc660608201524660808201523060a082015260a08152611ef860c082611b3f565b51902090565b505f80805290917f290decd9548b62a8d60345a988386fc84ba6bc95484008f6362f93160ef3e5635b818310611f3f575050906020611e8492820101611e78565b6020919350806001915483858801015201910190918392611f27565b60ff1916865250611e8492151560051b82016020019050611e78565b15611f7e57565b60405162461bcd60e51b815260206004820152600c60248201526b15539055551213d49256915160a21b6044820152606490fd5b15611fb957565b60405162461bcd60e51b815260206004820152600a6024820152695245454e5452414e435960b01b6044820152606490fd5b15611ff257565b60405162461bcd60e51b815260206004820152600e60248201526d141bdbdb081a5cc81c185d5cd95960921b6044820152606490fd5b1561202f57565b60405162461bcd60e51b815260206004820152601860248201527f4d757374207761697420666f72206e65787420626c6f636b00000000000000006044820152606490fd5b90816020910312610258575180151581036102585790565b1561209357565b60405162461bcd60e51b815260206004820152601f60248201527f5265656e7472616e637947756172643a207265656e7472616e742063616c6c006044820152606490fd5b156120df57565b60405162461bcd60e51b815260206004820152601a60248201527f496e73756666696369656e74206f757470757420616d6f756e740000000000006044820152606490fd5b6007546001600160a01b031680151592908361215d575b50508115612147575090565b6006546001600160a01b03918216911614919050565b60405163b700961360e01b81526001600160a01b03841660048201523060248201526001600160e01b031992909216604483015291925090602090829060649082905afa9081156104a2575f916121b8575b50905f8061213b565b6121d1915060203d6020116114ad5761149f8183611b3f565b5f6121af565b6040516323b872dd60e01b81526001600160a01b03928316600482015292909116602483015260448201929092526020905f9060649082855af19081601f3d1160015f5114161516612268575b501561222c57565b60405162461bcd60e51b81526020600482015260146024820152731514905394d1915497d19493d357d1905253115160621b6044820152606490fd5b3b153d171590505f612224565b9081156123015781818111156122f2579061228f91611df0565b905b612710820291808304612710149015171561045c576122af91611bde565b600d54106122b957565b60405162461bcd60e51b815260206004820152601160248201527014db1a5c1c1859d948195e18d959591959607a1b6044820152606490fd5b6122fb91611df0565b90612291565b60405162461bcd60e51b8152602060048201526016602482015275496e76616c696420657870656374656420707269636560501b6044820152606490fd5b5f80809381935af11561234e57565b60405162461bcd60e51b815260206004820152601360248201527211551217d514905394d1915497d19052531151606a1b6044820152606490fd5b60405163a9059cbb60e01b81526001600160a01b03909216600483015260248201929092526020905f9060449082855af19081601f3d1160015f511416151661240c575b50156123d557565b60405162461bcd60e51b815260206004820152600f60248201526e1514905394d1915497d19052531151608a1b6044820152606490fd5b3b153d171590505f6123cd56fe42a18616be918f4020c41e380fa33944c329ad0fbebec75013247387e1be3e86ddf252ad1be2c89b69c2b068fc378daa952ba7f163c4a11628f55a4df523b3efa26469706673582212207c99e86c75f7af68ed00afa07c9b2547a761466c8bc6ff8464251344e77b2b0f64736f6c634300081c003360808060405234601557610d24908161001a8239f35b5f80fdfe60806040526004361015610011575f80fd5b5f3560e01c80632e2c284d146100845780633ed908611461007f578063726a395b1461007a578063a3701acc14610075578063a97addd414610070578063c25c469a1461006b5763fa6721ff14610066575f80fd5b6103f5565b610382565b61030f565b6102e8565b61024d565b61014a565b346100b35760403660031901126100b35760206100ab6004356100a56100b7565b90610452565b604051908152f35b5f80fd5b6024359063ffffffff821682036100b357565b6084359063ffffffff821682036100b357565b610104359063ffffffff821682036100b357565b91909160a06001600160401b038160c084019563ffffffff815116855282602082015116602086015282604082015116604086015282606082015116606086015263ffffffff6080820151166080860152015116910152565b346100b3575f3660031901126100b3576101626104ff565b506101bd61016e6101c1565b60128152670853a0d2313c00006020820152670214e8348c4f00006040820152670429d069189e000060608201526003608082015267016345785d8a000060a0820152604051918291826100f1565b0390f35b6040519060c082018281106001600160401b038211176101e057604052565b634e487b7160e01b5f52604160045260245ffd5b60a435906001600160401b03821682036100b357565b60c435906001600160401b03821682036100b357565b60e435906001600160401b03821682036100b357565b61012435906001600160401b03821682036100b357565b346100b3576101403660031901126100b35760443560243560043560643560c06083193601126100b3576101bd936102d8936102876101c1565b936102906100ca565b855261029a6101f4565b60208601526102a761020a565b60408601526102b4610220565b60608601526102c16100dd565b60808601526102ce610236565b60a086015261052b565b6040519081529081906020820190565b346100b35760403660031901126100b35760206100ab6004356103096100b7565b906107ca565b346100b3575f3660031901126100b3576103276104ff565b506101bd6103336101c1565b600f81526706f05b59d3b2000060208201526702c68af0bb1400006040820152670429d069189e00006060820152600460808201526702c68af0bb14000060a0820152604051918291826100f1565b346100b3575f3660031901126100b35761039a6104ff565b506101bd6103a66101c1565b600c815267058d15e17628000060208201526703782dace9d90000604082015267058d15e1762800006060820152600560808201526702c68af0bb14000060a0820152604051918291826100f1565b346100b35760403660031901126100b3576024356004356001600160401b03821682036100b3576020916100ab9161088b565b8015610434575f190490565b634e487b7160e01b5f52601260045260245ffd5b8115610434570490565b9081156104f15763ffffffff811680156104e2576ec097ce7bc90715b34b9f100000000083116104db576020106104d55761048c9161091f565b670de0b6b3a76400001981116104d057670de0b6b3a764000001670de0b6b3a76400008111156104d0578015610434576ec097ce7bc90715b34b9f10000000000490565b505f90565b50505f90565b5050505f90565b505050670de0b6b3a764000090565b5050670de0b6b3a764000090565b6105076101c1565b905f82525f60208301525f60408301525f60608301525f60808301525f60a0830152565b9093929381158015610770575b8015610768575b8015610760575b61072157683635c9adc5dea000008311801561074e575b61073f5761057161056d856109c2565b1590565b6107305761057e81610428565b82116106dd5761058e9102610ad2565b92633b9aca008410610721577812725dd1d243aba0e75fe645cc4873f9e65afe688c928e1f21821161070857670de0b6b3a76400006105cd9202610448565b670de0b6b3a764000081106106f857670de0b6b3a763ffff1901905b61069d6106036105fd835163ffffffff1690565b846107ca565b61066761065b60a061068e61067661064361063161062b60408b01516001600160401b031690565b8b61088b565b996100a560808b015163ffffffff1690565b9561066761065b60208b01516001600160401b031690565b6001600160401b031690565b02670de0b6b3a7640000900490565b9761066761065b60608a01516001600160401b031690565b9501516001600160401b031690565b918119811180156106ec575b6106dd5701016106b881610428565b82116106dd57670de0b6b3a76400009082020490808210156106d8575090565b905090565b634eab2ea760e11b5f5260045ffd5b508219828201116106a9565b670de0b6b3a764000003906105e9565b61071b90670de0b6b3a764000092610448565b026105cd565b63b4fa3fb360e01b5f5260045ffd5b6306b7c75960e31b5f5260045ffd5b636e4ba61d60e01b5f5260045ffd5b50683635c9adc5dea00000851161055d565b508415610546565b50821561053f565b508015610538565b634e487b7160e01b5f52601160045260245ffd5b600160ff1b811461079c575f0390565b610778565b670de0b6b3a7640000019081670de0b6b3a76400001161079c57565b9190820180921161079c57565b9081156104f15763ffffffff81161561087d578181029182915f199109116100b35761080090670de0b6b3a7640000900461078c565b680238fd42c5cf03ffff19811315610863576802b5e3af16b18800008112156108705761082c90610c30565b670de0b6b3a764000019811015610863576108609061085a6ec097ce7bc90715b34b9f1000000000916107a1565b90610448565b90565b5067016345785d8a000090565b50670de0b6b3a764000090565b50506706f05b59d3b2000090565b9081156104f1576001600160401b031680156104d5576001600160801b0382116104d55780029081156104d5576108c181610428565b81116104d5578002906108d48183610448565b7812725dd1d243aba0e75fe645cc4873f9e65afe688c928e1f21106104d557670de0b6b3a76400006109069202610448565b6001600160801b0381116104d057610860905f03610c30565b9063ffffffff8116602081116106dd5780156104e2576001146109be5781156104d557670de0b6b3a7640000915b63ffffffff821661095d57505090565b60018083161461099b575b61097181610428565b81116106dd5761099590670de0b6b3a7640000908002049160011c637fffffff1690565b9061094d565b916109a583610428565b81116106dd57670de0b6b3a76400009083020491610968565b5090565b63ffffffff6109d5825163ffffffff1690565b16600a8110908115610ac7575b506104d0576001600160401b03610a0360408301516001600160401b031690565b16662386f26fc100008110908115610ab5575b506104d05763ffffffff610a31608083015163ffffffff1690565b168015908115610aaa575b506104d057610a9c81610a8761065b60a0610a8d610a7061065b6020670de0b6b3a76400009901516001600160401b031690565b610a8761065b60608801516001600160401b031690565b906107bd565b9301516001600160401b031690565b03610aa657600190565b5f90565b60209150115f610a3c565b670429d069189e00009150115f610a16565b60199150115f6109e2565b600181111561086057806001600160801b821015610bf3575b610b99610b8f610b85610b7b610b71610b67610b56610ba09760048a600160401b610ba59c1015610be6575b640100000000811015610bd9575b62010000811015610bcc575b610100811015610bbf575b6010811015610bb2575b1015610baa575b60030260011c90565b610b60818b610448565b0160011c90565b610b60818a610448565b610b608189610448565b610b608188610448565b610b608187610448565b610b608186610448565b8093610448565b821190565b900390565b60011b610b4d565b60041c9160021b91610b46565b60081c9160041b91610b3c565b60101c9160081b91610b31565b60201c9160101b91610b25565b60401c9160201b91610b17565b5050610ba5610ba0610b99610b8f610b85610b7b610b71610b67610b56610c1a8a60801c90565b9850600160401b9750610aeb9650505050505050565b680238fd42c5cf03ffff198113156104d0576802b5e3af16b1880000811215610ce2575f81129081610cd4575b670de0b6b3a76400009260019190845b633b9aca00811180610cca575b15610ca457610c986001918486670de0b6b3a7640000029102610448565b80960193019294610c6d565b509392915050610cb15790565b610860906ec097ce7bc90715b34b9f1000000000610448565b5060078410610c7a565b610cdd9061078c565b610c5d565b506001600160801b039056fea26469706673582212201855c726b0a0b285982e43cf87cb8223249ef73082b5fac6c1ce3f39ac504bbe64736f6c634300081c0033290decd9548b62a8d60345a988386fc84ba6bc95484008f6362f93160ef3e563","linkReferences":{}},"methodIdentifiers":{"DOMAIN_SEPARATOR()":"3644e515","MAX_SLIPPAGE_BPS()":"e229cd76","MINIMUM_LIQUIDITY()":"ba9a7a56","MIN_BLOCKS_DELAY()":"bb2e2d86","TIMELOCK_DELAY()":"5ba1c1a9","addLiquidity(uint256)":"51c6590a","allowance(address,address)":"dd62ed3e","approve(address,uint256)":"095ea7b3","authority()":"bf7e214f","balanceOf(address)":"70a08231","decimals()":"313ce567","getAmountOut(uint256,uint256,uint256)":"054d50d4","hydra()":"21d8ce20","hydraConfig()":"f2ddb117","initialize(address)":"c4d66de8","lastBlockTraded(address)":"b8b8abba","lastPauseTime()":"91b4ded9","memeCoin()":"71f1a3a6","name()":"06fdde03","nonces(address)":"7ecebe00","owner()":"8da5cb5b","pause()":"8456cb59","paused()":"5c975abb","permit(address,address,uint256,uint256,uint8,bytes32,bytes32)":"d505accf","poolAuthority()":"a320dffe","proposeChange(bytes32,uint256)":"ae126abd","removeLiquidity(uint256)":"9c8f9f23","setAuthority(address)":"7a9e5e4b","slippageLimit()":"5b07871a","swapExactETHForTokens()":"f281cc14","swapExactTokensForETH(uint256)":"7f92c8a6","symbol()":"95d89b41","timelockDeadlines(bytes32)":"910b7fdd","timelockExecuted(bytes32)":"bc74f046","totalSupply()":"18160ddd","transfer(address,uint256)":"a9059cbb","transferFrom(address,address,uint256)":"23b872dd","transferOwnership(address)":"f2fde38b","unpause()":"3f4ba83a","updateSlippageLimit(uint256)":"a87c3251"},"id":40}