{"abi":[{"type":"constructor","inputs":[{"name":"_antiRugPull","type":"address","internalType":"address"},{"name":"_assetRegistry","type":"address","internalType":"address"}],"stateMutability":"nonpayable"},{"type":"function","name":"allMemeCoins","inputs":[{"name":"","type":"uint256","internalType":"uint256"}],"outputs":[{"name":"","type":"address","internalType":"address"}],"stateMutability":"view"},{"type":"function","name":"allMemeCoinsLength","inputs":[],"outputs":[{"name":"","type":"uint256","internalType":"uint256"}],"stateMutability":"view"},{"type":"function","name":"antiRugPull","inputs":[],"outputs":[{"name":"","type":"address","internalType":"address"}],"stateMutability":"view"},{"type":"function","name":"assetRegistry","inputs":[],"outputs":[{"name":"","type":"address","internalType":"address"}],"stateMutability":"view"},{"type":"function","name":"createMemeCoin","inputs":[{"name":"name","type":"string","internalType":"string"},{"name":"symbol","type":"string","internalType":"string"},{"name":"imageUri","type":"string","internalType":"string"},{"name":"description","type":"string","internalType":"string"},{"name":"owner","type":"address","internalType":"address"},{"name":"initialSupply","type":"uint256","internalType":"uint256"},{"name":"salt","type":"uint256","internalType":"uint256"}],"outputs":[{"name":"memeCoin","type":"address","internalType":"address"}],"stateMutability":"nonpayable"},{"type":"function","name":"getMemeCoin","inputs":[{"name":"","type":"bytes32","internalType":"bytes32"}],"outputs":[{"name":"","type":"address","internalType":"address"}],"stateMutability":"view"},{"type":"function","name":"predictMemeCoinAddress","inputs":[{"name":"name","type":"string","internalType":"string"},{"name":"symbol","type":"string","internalType":"string"},{"name":"owner","type":"address","internalType":"address"},{"name":"salt","type":"uint256","internalType":"uint256"}],"outputs":[{"name":"","type":"address","internalType":"address"}],"stateMutability":"view"},{"type":"event","name":"MemeCoinCreated","inputs":[{"name":"name","type":"string","indexed":false,"internalType":"string"},{"name":"symbol","type":"string","indexed":false,"internalType":"string"},{"name":"memeCoin","type":"address","indexed":true,"internalType":"address"},{"name":"owner","type":"address","indexed":true,"internalType":"address"},{"name":"totalSupply","type":"uint256","indexed":false,"internalType":"uint256"}],"anonymous":false}],"bytecode":{"object":"0x60c03461013057601f61265f38819003918201601f19168301916001600160401b0383118484101761013457808492604094855283398101031261013057610052602061004b83610148565b9201610148565b906001600160a01b038116156100eb576001600160a01b038216156100a65760805260a052604051612502908161015d82396080518181816104470152610b6f015260a0518181816103220152610a690152f35b60405162461bcd60e51b815260206004820152601d60248201527f496e76616c6964204173736574526567697374727920616464726573730000006044820152606490fd5b60405162461bcd60e51b815260206004820152601b60248201527f496e76616c696420416e746952756750756c6c206164647265737300000000006044820152606490fd5b5f80fd5b634e487b7160e01b5f52604160045260245ffd5b51906001600160a01b03821682036101305756fe60806040526004361015610011575f80fd5b5f3560e01c80631a2a141e146100845780634266fc411461007f5780635cd329281461007a578063979d7e86146100755780639eeb26ed14610070578063a94466e71461006b5763b33d8d1a14610066575f80fd5b610432565b610401565b610351565b61030d565b6102f0565b61028c565b346101bb5760803660031901126101bb5760043567ffffffffffffffff81116101bb576100b590369060040161020a565b6024359067ffffffffffffffff82116101bb5761019161019d916100e06101b794369060040161020a565b6101116100eb610260565b91610103606435604051948593602085019788610488565b03601f1981018352826101d3565b51902061010361018261176b60405161012d60208301826101d3565b8181526020810191610d6283395190206040516001600160f81b0319602082019081523060601b6bffffffffffffffffffffffff19166021830152603582019590955260558101919091529182906075820190565b5190206001600160a01b031690565b6001600160a01b031690565b6040516001600160a01b0390911681529081906020820190565b0390f35b5f80fd5b634e487b7160e01b5f52604160045260245ffd5b90601f8019910116810190811067ffffffffffffffff8211176101f557604052565b6101bf565b9061020860405192836101d3565b565b81601f820112156101bb5780359067ffffffffffffffff82116101f5576040519261023f601f8401601f1916602001856101d3565b828452602083830101116101bb57815f926020809301838601378301015290565b604435906001600160a01b03821682036101bb57565b608435906001600160a01b03821682036101bb57565b346101bb5760203660031901126101bb576004356001548110156101bb5760015f527fb10e2d527612073b26eecdfd717e6a320cf44b4afac2b0732d9fcbe2b7fa0cf601546040516001600160a01b039091168152602090f35b5f9103126101bb57565b346101bb575f3660031901126101bb576020600154604051908152f35b346101bb575f3660031901126101bb576040517f00000000000000000000000000000000000000000000000000000000000000006001600160a01b03168152602090f35b346101bb5760e03660031901126101bb5760043567ffffffffffffffff81116101bb5761038290369060040161020a565b60243567ffffffffffffffff81116101bb576103a290369060040161020a565b60443567ffffffffffffffff81116101bb576103c290369060040161020a565b916064359167ffffffffffffffff83116101bb576101b7936103eb61019d94369060040161020a565b6103f3610276565b9160a4359360c4359561098c565b346101bb5760203660031901126101bb576004355f525f602052602060018060a01b0360405f205416604051908152f35b346101bb575f3660031901126101bb576040517f00000000000000000000000000000000000000000000000000000000000000006001600160a01b03168152602090f35b805191908290602001825e015f815290565b916104996034959361049f93610476565b90610476565b916bffffffffffffffffffffffff199060601b16825260148201520190565b156104c557565b60405162461bcd60e51b8152602060048201526015602482015274496e76616c6964206f776e6572206164647265737360581b6044820152606490fd5b1561050957565b60405162461bcd60e51b815260206004820152601f60248201527f496e697469616c20737570706c79206d75737420626520706f736974697665006044820152606490fd5b1561055557565b60405162461bcd60e51b81526020600482015260146024820152734e616d652063616e6e6f7420626520656d70747960601b6044820152606490fd5b1561059857565b60405162461bcd60e51b815260206004820152601660248201527553796d626f6c2063616e6e6f7420626520656d70747960501b6044820152606490fd5b156105dd57565b60405162461bcd60e51b815260206004820152601960248201527f496d616765205552492063616e6e6f7420626520656d707479000000000000006044820152606490fd5b1561062957565b60405162461bcd60e51b815260206004820152601b60248201527f4465736372697074696f6e2063616e6e6f7420626520656d70747900000000006044820152606490fd5b1561067557565b60405162461bcd60e51b815260206004820152601760248201527f4d656d65436f696e20616c7265616479206578697374730000000000000000006044820152606490fd5b156106c157565b60405162461bcd60e51b815260206004820152601860248201527f496e697469616c20737570706c7920746f6f206c6172676500000000000000006044820152606490fd5b908160209103126101bb575190565b805180835260209291819084018484015e5f828201840152601f01601f1916010190565b9261076b610787959361075d610779945f885260a0602089015260a0880190610715565b908682036040880152610715565b908482036060860152610715565b916080818403910152610715565b90565b6040513d5f823e3d90fd5b5f9060033d116107a157565b905060045f803e5f5160e01c90565b5f60443d10610787576040513d600319016004823e8051913d602484011167ffffffffffffffff84111761081e578282019283519167ffffffffffffffff8311610816573d840160031901858401602001116108165750610787929101602001906101d3565b949350505050565b92915050565b906020610787928181520190610715565b9294939060609261085161085f92608087526080870190610715565b908582036020870152610715565b6001600160a01b0395861660408501529416910152565b6102089061089261049994936040519586936020850190610476565b03601f1981018452836101d3565b156108a757565b60405162461bcd60e51b815260206004820152601160248201527011195c1b1bde5b595b9d0819985a5b1959607a1b6044820152606490fd5b600154680100000000000000008110156101f5576001810160015560015481101561094a5760015f527fb10e2d527612073b26eecdfd717e6a320cf44b4afac2b0732d9fcbe2b7fa0cf60180546001600160a01b0319166001600160a01b03909216919091179055565b634e487b7160e01b5f52603260045260245ffd5b93929161098790610979604093606088526060880190610715565b908682036020880152610715565b930152565b9091929594610aa3602060018060a01b038716976109ab8915156104be565b6109b6841515610502565b6109c28551151561054e565b6109ce86511515610591565b6109da875115156105d6565b6109e68a511515610622565b6040516109fd81610103858201948c8b8b88610488565b51902098610a2e610a28610191610a1b8d5f525f60205260405f2090565b546001600160a01b031690565b1561066e565b610a5a7f028f5c28f5c28f5c28f5c28f5c28f5c28f5c28f5c28f5c28f5c28f5c28f5c28f8511156106ba565b604051636711a4c960e11b81527f00000000000000000000000000000000000000000000000000000000000000006001600160a01b031697909384928392898960048601610739565b03815f895af15f9181610d30575b50610b4257610abe610795565b6308c379a014610b13575b60405162461bcd60e51b815260206004820152601b60248201527f4661696c656420746f207265676973746572206d657461646174610000000000604482015280606481015b0390fd5b610b1b6107b0565b80610b265750610ac9565b60405162461bcd60e51b8152908190610b0f9060048301610824565b9387610b9f61176b610b56602082016101fa565b90808252610d62602083013960405190610b9a826108927f00000000000000000000000000000000000000000000000000000000000000008d8c8c60208601610835565b610876565b6020815191015ff597883b156101bb576001600160a01b03891696610bc58815156108a0565b873b156101bb576040516340c10f1960e01b81526001600160a01b03919091166004820152602481018490525f81604481838c5af19081610d1c575b50610c435760405162461bcd60e51b8152602060048201526015602482015274125b9a5d1a585b1a5e985d1a5bdb8819985a5b1959605a1b6044820152606490fd5b88610c58610c77925f525f60205260405f2090565b80546001600160a01b0319166001600160a01b03909216919091179055565b610c80886108e0565b803b156101bb57604051638da894e360e01b81526001600160a01b038916600482015260248101959095525f908590604490829084905af1908115610d17577ffa3c2609b1c249bd2989415c74cc8150252d045f7e4c37149c98e7dbb65b4de394610cf792610cfd575b506040519384938461095e565b0390a390565b80610d0b5f610d11936101d3565b806102e6565b5f610cea565b61078a565b80610d0b5f610d2a936101d3565b5f610c01565b610d5391925060203d602011610d5a575b610d4b81836101d3565b810190610706565b905f610ab1565b503d610d4156fe60e080604052346104d55761176b803803809161001c82856104d9565b83398101906080818303126104d55780516001600160401b0381116104d557826100479183016104fc565b602082015190926001600160401b0382116104d55761006d6060916100819385016104fc565b9261007a60408201610551565b5001610551565b82516001600160401b0381116102d15761009b5f54610565565b601f8111610486575b506020601f821160011461042557819293945f9261041a575b50508160011b915f199060031b1c1916175f555b81516001600160401b0381116102d1576100ec600154610565565b601f81116103b7575b50602092601f821160011461035657928192935f9261034b575b50508160011b915f199060031b1c1916176001555b60126080524660a0526040515f905f54918161013f84610565565b9182825260208201946001811690815f1461032f57506001146102e5575b610169925003826104d9565b51902060405160208101917f8b73c3c69bb8fe3d512ecc4cf759cc79239f7b179b0ffacaa9a75d522b39400f835260408201527fc89efdaa54c0f20c7adf612882df0950f5a951637e0307cdcb4c672f298b8bc660608201524660808201523060a082015260a081526101dd60c0826104d9565b51902060c052600680546001600160a01b03191633908117909155604051905f7f8be0079c531659141344cd1fd0a4f28419497f9722a3daafe3b4186f6b6457e08180a3608081016001600160401b038111828210176102d157600a91606091604052683635c9adc5dea000008152681b1ae4d6e2ef500000602082015261012c60408201520152683635c9adc5dea00000600a55681b1ae4d6e2ef500000600b5561012c600c55600a600d55603260105560018060a01b031660018060a01b031960115416176011556040516111ad908161059e823960805181610a92015260a05181610de5015260c05181610e0b0152f35b634e487b7160e01b5f52604160045260245ffd5b505f80805290915f51602061174b5f395f51905f525b8183106103135750509060206101699282010161015d565b60209193508060019154838588010152019101909183926102fb565b60ff191686525061016992151560051b8201602001905061015d565b015190505f8061010f565b601f1982169360015f52805f20915f5b86811061039f5750836001959610610387575b505050811b01600155610124565b01515f1960f88460031b161c191690555f8080610379565b91926020600181928685015181550194019201610366565b60015f527fb10e2d527612073b26eecdfd717e6a320cf44b4afac2b0732d9fcbe2b7fa0cf6601f830160051c81019160208410610410575b601f0160051c01905b81811061040557506100f5565b5f81556001016103f8565b90915081906103ef565b015190505f806100bd565b601f198216905f8052805f20915f5b81811061046e57509583600195969710610456575b505050811b015f556100d1565b01515f1960f88460031b161c191690555f8080610449565b9192602060018192868b015181550194019201610434565b5f80525f51602061174b5f395f51905f52601f830160051c810191602084106104cb575b601f0160051c01905b8181106104c057506100a4565b5f81556001016104b3565b90915081906104aa565b5f80fd5b601f909101601f19168101906001600160401b038211908210176102d157604052565b81601f820112156104d5578051906001600160401b0382116102d15760405192610530601f8401601f1916602001856104d9565b828452602083830101116104d557815f9260208093018386015e8301015290565b51906001600160a01b03821682036104d557565b90600182811c92168015610593575b602083101461057f57565b634e487b7160e01b5f52602260045260245ffd5b91607f169161057456fe6080806040526004361015610012575f80fd5b5f3560e01c90816305618c1814610cf65750806306fdde0314610c54578063095ea7b314610bdb57806318160ddd14610bbe578063195afad314610ba157806323b872dd14610ab6578063313ce56714610a795780633644e51514610a575780633bbac57914610a1a5780633cd0ad0b146109e457806340c10f19146109445780634ada218b1461092257806370a08231146108ea578063790ca413146108cd578063798d5de31461085d5780637ecebe00146108255780638a8c523c146107c95780638da5cb5b146107a157806395d89b41146106c7578063992a7c831461069a5780639b7aa2b714610636578063a5d7d671146105d4578063a9059cbb14610541578063b33d8d1a14610519578063b9a45aac146104b9578063bf785c5f1461049e578063bfdae11b1461047f578063d505accf14610275578063d936547e14610238578063dd62ed3e146101e85763f2fde38b14610171575f80fd5b346101e45760203660031901126101e45761018a610da7565b600654906101a2336001600160a01b03841614610f5c565b6001600160a01b03166001600160a01b0319919091168117600655337f8be0079c531659141344cd1fd0a4f28419497f9722a3daafe3b4186f6b6457e05f80a3005b5f80fd5b346101e45760403660031901126101e457610201610da7565b610209610dbd565b6001600160a01b039182165f908152600460209081526040808320949093168252928352819020549051908152f35b346101e45760203660031901126101e4576001600160a01b03610259610da7565b165f526009602052602060ff60405f2054166040519015158152f35b346101e45760e03660031901126101e45761028e610da7565b610296610dbd565b6044356064359260843560ff81168091036101e45742851061043a5760805f916020936102c1610de2565b9060018060a01b03169687855260058652604085209889549960018b01905560405190878201927f6e71edae12b1b97f4d1f60370fef10105fa2faae0126114a169c64845d6126c984528a604084015260018060a01b03169a8b6060840152898784015260a083015260c082015260c0815261033e60e082610d47565b519020604051908682019261190160f01b8452602283015260428201526042815261036a606282610d47565b519020906040519182528482015260a435604082015260c435606082015282805260015afa1561042f575f516001600160a01b031680151580610426575b156103f0577f8c5be1e5ebec7d5bd14f71427d1e84f3dd0314c0f7b2291e5b200ac8c7c3b925916020915f526004825260405f20855f5282528060405f2055604051908152a3005b60405162461bcd60e51b815260206004820152600e60248201526d24a72b20a624a22fa9a4a3a722a960911b6044820152606490fd5b508281146103a8565b6040513d5f823e3d90fd5b60405162461bcd60e51b815260206004820152601760248201527f5045524d49545f444541444c494e455f455850495245440000000000000000006044820152606490fd5b346101e4575f3660031901126101e457602060405164e8d4a510008152f35b346101e4575f3660031901126101e457602060405160058152f35b346101e45760403660031901126101e4576104d2610da7565b602435908115158092036101e4576104f560018060a01b03600654163314610f5c565b60018060a01b03165f52600960205260405f209060ff801983541691161790555f80f35b346101e4575f3660031901126101e4576011546040516001600160a01b039091168152602090f35b346101e45760403660031901126101e45761055a610da7565b60243590610569828233610faf565b335f52600360205260405f2061058083825461116a565b905560018060a01b031690815f52600360205260405f208181540190556040519081527fddf252ad1be2c89b69c2b068fc378daa952ba7f163c4a11628f55a4df523b3ef60203392a3602060405160018152f35b346101e45760203660031901126101e4576105ed610da7565b61060260018060a01b03600654163314610f5c565b6001600160a01b03165f90815260086020526040812081815560018101829055600281018290556003810182905560040155005b346101e45760203660031901126101e4576001600160a01b03610657610da7565b165f52600860205260a060405f20805490600181015490600281015460046003830154920154926040519485526020850152604084015260608301526080820152f35b346101e45760603660031901126101e4576106b3610da7565b506106bc610dd3565b5060206040515f8152f35b346101e4575f3660031901126101e4576040515f6001546106e781610d0f565b808452906001811690811561077d575060011461071f575b61071b8361070f81850382610d47565b60405191829182610d7d565b0390f35b60015f9081527fb10e2d527612073b26eecdfd717e6a320cf44b4afac2b0732d9fcbe2b7fa0cf6939250905b8082106107635750909150810160200161070f6106ff565b91926001816020925483858801015201910190929161074b565b60ff191660208086019190915291151560051b8401909101915061070f90506106ff565b346101e4575f3660031901126101e4576006546040516001600160a01b039091168152602090f35b346101e4575f3660031901126101e4576107ee60018060a01b03600654163314610f5c565b600160ff19600e541617600e5542600f557f799663458a5ef2936f7fa0c99b3336c69c25890f82974f04e811e5bb359186c75f80a1005b346101e45760203660031901126101e4576001600160a01b03610846610da7565b165f526005602052602060405f2054604051908152f35b346101e45760803660031901126101e4577f165ce1bab4586c12e7995a7a12e6e1582fefb35155f79e0b71bcae5964d8a93860406004356024356108ac60018060a01b03600654163314610f5c565b81600a5580600b55604435600c55606435600d5582519182526020820152a1005b346101e4575f3660031901126101e4576020600f54604051908152f35b346101e45760203660031901126101e4576001600160a01b0361090b610da7565b165f526003602052602060405f2054604051908152f35b346101e4575f3660031901126101e457602060ff600e54166040519015158152f35b346101e45760403660031901126101e45761095d610da7565b6024359061097660018060a01b03600654163314610f5c565b600254908282018092116109d05760207fddf252ad1be2c89b69c2b068fc378daa952ba7f163c4a11628f55a4df523b3ef915f9360025560018060a01b0316938484526003825260408420818154019055604051908152a3005b634e487b7160e01b5f52601160045260245ffd5b346101e4575f3660031901126101e4576080600a54600b54600c54600d5491604051938452602084015260408301526060820152f35b346101e45760203660031901126101e4576001600160a01b03610a3b610da7565b165f526007602052602060ff60405f2054166040519015158152f35b346101e4575f3660031901126101e4576020610a71610de2565b604051908152f35b346101e4575f3660031901126101e457602060405160ff7f0000000000000000000000000000000000000000000000000000000000000000168152f35b346101e45760603660031901126101e457610acf610da7565b610ad7610dbd565b7fddf252ad1be2c89b69c2b068fc378daa952ba7f163c4a11628f55a4df523b3ef602060443593610b09858583610faf565b6001600160a01b03165f81815260048352604080822033835284529020549093908560018201610b7c575b5050835f526003825260405f20610b4c86825461116a565b90556001600160a01b03165f818152600383526040908190208054870190555194855293a3602060405160018152f35b610b859161116a565b5f85815260048452604080822033835285529020558585610b34565b346101e4575f3660031901126101e4576020601054604051908152f35b346101e4575f3660031901126101e4576020600254604051908152f35b346101e45760403660031901126101e457610bf4610da7565b335f8181526004602090815260408083206001600160a01b03909516808452948252918290206024359081905591519182527f8c5be1e5ebec7d5bd14f71427d1e84f3dd0314c0f7b2291e5b200ac8c7c3b92591a3602060405160018152f35b346101e4575f3660031901126101e4576040515f5f54610c7381610d0f565b808452906001811690811561077d5750600114610c9a5761071b8361070f81850382610d47565b5f8080527f290decd9548b62a8d60345a988386fc84ba6bc95484008f6362f93160ef3e563939250905b808210610cdc5750909150810160200161070f6106ff565b919260018160209254838588010152019101909291610cc4565b346101e4575f3660031901126101e45780600260209252f35b90600182811c92168015610d3d575b6020831014610d2957565b634e487b7160e01b5f52602260045260245ffd5b91607f1691610d1e565b90601f8019910116810190811067ffffffffffffffff821117610d6957604052565b634e487b7160e01b5f52604160045260245ffd5b602060409281835280519182918282860152018484015e5f828201840152601f01601f1916010190565b600435906001600160a01b03821682036101e457565b602435906001600160a01b03821682036101e457565b6044359081151582036101e457565b467f000000000000000000000000000000000000000000000000000000000000000003610e2d577f000000000000000000000000000000000000000000000000000000000000000090565b6040515f905f549181610e3f84610d0f565b9182825260208201946001811690815f14610f405750600114610ee3575b610e6992500382610d47565b51902060405160208101917f8b73c3c69bb8fe3d512ecc4cf759cc79239f7b179b0ffacaa9a75d522b39400f835260408201527fc89efdaa54c0f20c7adf612882df0950f5a951637e0307cdcb4c672f298b8bc660608201524660808201523060a082015260a08152610edd60c082610d47565b51902090565b505f80805290917f290decd9548b62a8d60345a988386fc84ba6bc95484008f6362f93160ef3e5635b818310610f24575050906020610e6992820101610e5d565b6020919350806001915483858801015201910190918392610f0c565b60ff1916865250610e6992151560051b82016020019050610e5d565b15610f6357565b60405162461bcd60e51b815260206004820152600c60248201526b15539055551213d49256915160a21b6044820152606490fd5b908160209103126101e4575180151581036101e45790565b6001600160a01b031680151580611152575b6110a6575b506001600160a01b03169081610fda575050565b601154604051633b5add1560e21b81523060048201526024810193909352604483019190915260016064830152602090829060849082906001600160a01b03165afa90811561042f575f91611077575b501561103257565b60405162461bcd60e51b815260206004820152601860248201527f42616c616e636520776f756c6420657863656564206d617800000000000000006044820152606490fd5b611099915060203d60201161109f575b6110918183610d47565b810190610f97565b5f61102a565b503d611087565b60115460405163665219cf60e11b8152306004820152602481019290925260448201849052602090829060649082905f906001600160a01b03165af190811561042f575f91611133575b50156110fc575f610fc6565b60405162461bcd60e51b815260206004820152600f60248201526e14d95b1b081c995cdd1c9a58dd1959608a1b6044820152606490fd5b61114c915060203d60201161109f576110918183610d47565b5f6110f0565b506006546001600160a01b0383811691161415610fc1565b919082039182116109d05756fea2646970667358221220b2ebf954000f1c22afb8fe316778b1b9ddde61a6ddddc31a9fc86ee019cd2afb64736f6c634300081c0033290decd9548b62a8d60345a988386fc84ba6bc95484008f6362f93160ef3e563a264697066735822122065deea18e05ac7c9bb7e79061cbad0b0a66a993cfb520e050030f5daec4e4f6c64736f6c634300081c0033","linkReferences":{}},"methodIdentifiers":{"allMemeCoins(uint256)":"4266fc41","allMemeCoinsLength()":"5cd32928","antiRugPull()":"b33d8d1a","assetRegistry()":"979d7e86","createMemeCoin(string,string,string,string,address,uint256,uint256)":"9eeb26ed","getMemeCoin(bytes32)":"a94466e7","predictMemeCoinAddress(string,string,address,uint256)":"1a2a141e"},"id":38}