{"abi":[{"type":"constructor","inputs":[{"name":"_authority","type":"address","internalType":"address"}],"stateMutability":"nonpayable"},{"type":"function","name":"CIRCUIT_BREAKER_THRESHOLD","inputs":[],"outputs":[{"name":"","type":"uint256","internalType":"uint256"}],"stateMutability":"view"},{"type":"function","name":"COOLDOWN_PERIOD","inputs":[],"outputs":[{"name":"","type":"uint256","internalType":"uint256"}],"stateMutability":"view"},{"type":"function","name":"MAX_PRICE_IMPACT_BPS","inputs":[],"outputs":[{"name":"","type":"uint256","internalType":"uint256"}],"stateMutability":"view"},{"type":"function","name":"MAX_TRADE_SIZE_BPS","inputs":[],"outputs":[{"name":"","type":"uint256","internalType":"uint256"}],"stateMutability":"view"},{"type":"function","name":"MAX_UINT","inputs":[],"outputs":[{"name":"","type":"uint256","internalType":"uint256"}],"stateMutability":"view"},{"type":"function","name":"MIN_TIME_BETWEEN_TRADES","inputs":[],"outputs":[{"name":"","type":"uint256","internalType":"uint256"}],"stateMutability":"view"},{"type":"function","name":"TRADE_WINDOW","inputs":[],"outputs":[{"name":"","type":"uint256","internalType":"uint256"}],"stateMutability":"view"},{"type":"function","name":"authority","inputs":[],"outputs":[{"name":"","type":"address","internalType":"contract Authority"}],"stateMutability":"view"},{"type":"function","name":"blacklistAddress","inputs":[{"name":"account","type":"address","internalType":"address"}],"outputs":[],"stateMutability":"nonpayable"},{"type":"function","name":"blacklisted","inputs":[{"name":"","type":"address","internalType":"address"}],"outputs":[{"name":"","type":"bool","internalType":"bool"}],"stateMutability":"view"},{"type":"function","name":"clearTradingHistory","inputs":[{"name":"trader","type":"address","internalType":"address"}],"outputs":[],"stateMutability":"nonpayable"},{"type":"function","name":"emergencyMode","inputs":[],"outputs":[{"name":"","type":"bool","internalType":"bool"}],"stateMutability":"view"},{"type":"function","name":"falconVerifier","inputs":[],"outputs":[{"name":"","type":"address","internalType":"contract IFalconVerifier"}],"stateMutability":"view"},{"type":"function","name":"getTraderStats","inputs":[{"name":"trader","type":"address","internalType":"address"}],"outputs":[{"name":"lastTrade","type":"uint256","internalType":"uint256"},{"name":"volume","type":"uint256","internalType":"uint256"},{"name":"isBlacklisted","type":"bool","internalType":"bool"}],"stateMutability":"view"},{"type":"function","name":"isAddressBlacklisted","inputs":[{"name":"account","type":"address","internalType":"address"}],"outputs":[{"name":"","type":"bool","internalType":"bool"}],"stateMutability":"view"},{"type":"function","name":"lastTradeTime","inputs":[{"name":"","type":"address","internalType":"address"}],"outputs":[{"name":"","type":"uint256","internalType":"uint256"}],"stateMutability":"view"},{"type":"function","name":"owner","inputs":[],"outputs":[{"name":"","type":"address","internalType":"address"}],"stateMutability":"view"},{"type":"function","name":"setAuthority","inputs":[{"name":"newAuthority","type":"address","internalType":"contract Authority"}],"outputs":[],"stateMutability":"nonpayable"},{"type":"function","name":"setEmergencyMode","inputs":[{"name":"_emergencyMode","type":"bool","internalType":"bool"}],"outputs":[],"stateMutability":"nonpayable"},{"type":"function","name":"setFalconVerifier","inputs":[{"name":"_falconVerifier","type":"address","internalType":"address"}],"outputs":[],"stateMutability":"nonpayable"},{"type":"function","name":"tradingVolume","inputs":[{"name":"","type":"address","internalType":"address"}],"outputs":[{"name":"","type":"uint256","internalType":"uint256"}],"stateMutability":"view"},{"type":"function","name":"transferOwnership","inputs":[{"name":"newOwner","type":"address","internalType":"address"}],"outputs":[],"stateMutability":"nonpayable"},{"type":"function","name":"usedSignatures","inputs":[{"name":"","type":"bytes32","internalType":"bytes32"}],"outputs":[{"name":"","type":"bool","internalType":"bool"}],"stateMutability":"view"},{"type":"function","name":"validateSignature","inputs":[{"name":"hash","type":"bytes32","internalType":"bytes32"},{"name":"signature","type":"bytes","internalType":"bytes"},{"name":"signer","type":"address","internalType":"address"}],"outputs":[{"name":"","type":"bool","internalType":"bool"}],"stateMutability":"nonpayable"},{"type":"function","name":"validateTrade","inputs":[{"name":"trader","type":"address","internalType":"address"},{"name":"token","type":"address","internalType":"address"},{"name":"amount","type":"uint256","internalType":"uint256"},{"name":"expectedPrice","type":"uint256","internalType":"uint256"}],"outputs":[{"name":"","type":"bool","internalType":"bool"}],"stateMutability":"nonpayable"},{"type":"function","name":"validateTransactionHash","inputs":[{"name":"txHash","type":"bytes32","internalType":"bytes32"}],"outputs":[{"name":"","type":"bool","internalType":"bool"}],"stateMutability":"pure"},{"type":"function","name":"validationNonces","inputs":[{"name":"","type":"address","internalType":"address"}],"outputs":[{"name":"","type":"uint256","internalType":"uint256"}],"stateMutability":"view"},{"type":"event","name":"AddressBlacklisted","inputs":[{"name":"account","type":"address","indexed":true,"internalType":"address"}],"anonymous":false},{"type":"event","name":"AnomalyDetected","inputs":[{"name":"anomalyType","type":"string","indexed":false,"internalType":"string"},{"name":"source","type":"address","indexed":true,"internalType":"address"}],"anonymous":false},{"type":"event","name":"AuthorityUpdated","inputs":[{"name":"user","type":"address","indexed":true,"internalType":"address"},{"name":"newAuthority","type":"address","indexed":true,"internalType":"contract Authority"}],"anonymous":false},{"type":"event","name":"OwnershipTransferred","inputs":[{"name":"user","type":"address","indexed":true,"internalType":"address"},{"name":"newOwner","type":"address","indexed":true,"internalType":"address"}],"anonymous":false},{"type":"event","name":"SecurityLimitUpdated","inputs":[{"name":"parameter","type":"string","indexed":false,"internalType":"string"},{"name":"value","type":"uint256","indexed":false,"internalType":"uint256"}],"anonymous":false},{"type":"event","name":"SecurityStateChanged","inputs":[{"name":"emergencyMode","type":"bool","indexed":false,"internalType":"bool"}],"anonymous":false},{"type":"event","name":"ValidationFailed","inputs":[{"name":"reason","type":"string","indexed":false,"internalType":"string"},{"name":"data","type":"bytes","indexed":false,"internalType":"bytes"}],"anonymous":false}],"bytecode":{"object":"0x60803460d857601f61122838819003918201601f19168301916001600160401b0383118484101760dc5780849260209460405283398101031260d857516001600160a01b0381169081900360d8575f8054336001600160a01b031991821681178355600180549092168417909155604051929181907f8be0079c531659141344cd1fd0a4f28419497f9722a3daafe3b4186f6b6457e09080a3337fa3396fd7f6e0a21b50e5089d2da70d5ac0a3bbbd1f617a93f134b763899801985f80a3600160025560ff196003541660035561113790816100f18239f35b5f80fd5b634e487b7160e01b5f52604160045260245ffdfe60806040526004361015610011575f80fd5b5f3560e01c806303186eef146101bf5780630905f560146101ba5780630ca55cd7146101b55780630ff8ed81146101b057806315c2fe9a146101ab5780631a2640a1146101a65780633feb5154146101a15780636e99d52f1461019c5780637810e19f146101975780637a9e5e4b146101925780638da5cb5b1461018d57806390683e8c14610165578063a5d7d67114610188578063be32b3f814610183578063bf7e214f1461017e578063c02495c314610179578063c1af70f614610174578063cae00a971461016f578063ce750dd71461016a578063dbac26e914610165578063e5674b2314610160578063e5b5019a1461015b578063eff0583014610156578063f2fde38b14610151578063f3290d751461014c578063f6d2f621146101475763f978fd6114610142575f80fd5b610a60565b6109bb565b61093f565b6108c4565b6108a4565b610889565b61076b565b610545565b610743565b610728565b6106ed565b610689565b610661565b6105ef565b610585565b61051e565b6103ee565b610347565b6102f0565b6102d4565b610299565b61027d565b610261565b610245565b610223565b6101e8565b6001600160a01b038116036101d557565b5f80fd5b604435906101e6826101c4565b565b346101d55760203660031901126101d557600435610205816101c4565b60018060a01b03165f526004602052602060405f2054604051908152f35b346101d5575f3660031901126101d557602060ff600354166040519015158152f35b346101d5575f3660031901126101d55760206040516113888152f35b346101d5575f3660031901126101d55760206040516103848152f35b346101d5575f3660031901126101d55760206040516103e88152f35b346101d55760203660031901126101d5576004356102b6816101c4565b60018060a01b03165f526005602052602060405f2054604051908152f35b346101d5575f3660031901126101d55760206040516101f48152f35b346101d5575f3660031901126101d5576020604051610e108152f35b634e487b7160e01b5f52604160045260245ffd5b90601f8019910116810190811067ffffffffffffffff82111761034257604052565b61030c565b346101d55760603660031901126101d55760043560243567ffffffffffffffff81116101d557366023820112156101d55780600401359167ffffffffffffffff8311610342576040516103a4601f8501601f191660200182610320565b83815236602485850101116101d5575f6020856103ea9660246103d8970183860137830101526103d26101d9565b91610b42565b60405190151581529081906020820190565b0390f35b346101d55760203660031901126101d55760043561040b816101c4565b5f54610427906001600160a01b03165b6001600160a01b031690565b33148015610484575b61043990610c3d565b600180546001600160a01b0319166001600160a01b0383161790556001600160a01b0316337fa3396fd7f6e0a21b50e5089d2da70d5ac0a3bbbd1f617a93f134b763899801985f80a3005b5060015461049a906001600160a01b031661041b565b60405163b700961360e01b81523360048201523060248201526001600160e01b03195f3516604482015290602090829060649082905afa801561051957610439915f916104ea575b509050610430565b61050c915060203d602011610512575b6105048183610320565b810190610c1a565b5f6104e2565b503d6104fa565b610c32565b346101d5575f3660031901126101d5575f546040516001600160a01b039091168152602090f35b346101d55760203660031901126101d557600435610562816101c4565b60018060a01b03165f526006602052602060ff60405f2054166040519015158152f35b346101d55760203660031901126101d5576004356105a2816101c4565b6105bf6105ba5f356001600160e01b03191633610edf565b610c44565b6001600160a01b03165f9081526004602090815260408083208390556005909152812055005b801515036101d557565b346101d55760203660031901126101d5577f8bb736f7aa03fc6de6e689727ed3948042883267b5c2dce1b001a531384251c9602060043561062f816105e5565b6106476105ba5f356001600160e01b03191633610edf565b151560ff196003541660ff821617600355604051908152a1005b346101d5575f3660031901126101d5576001546040516001600160a01b039091168152602090f35b346101d55760203660031901126101d5576004356106a6816101c4565b6001600160a01b03165f90815260046020908152604080832054600583528184205460068452938290205482519182529281019390935260ff909116151590820152606090f35b346101d55760203660031901126101d55760043561070a816101c4565b60018060a01b03165f526008602052602060405f2054604051908152f35b346101d5575f3660031901126101d557602060405160018152f35b346101d5575f3660031901126101d5576009546040516001600160a01b039091168152602090f35b346101d55760803660031901126101d557600435610788816101c4565b602435610794816101c4565b604435916064359060ff600354166108505761081461080f8561083a946107f96107f483610842996107ef6107ea6107e66107df8c60018060a01b03165f52600660205260405f2090565b5460ff1690565b1590565b610c7f565b610fb4565b610cc1565b61080a61080586611056565b610d04565b611095565b610d49565b6001600160a01b03165f9081526004602090815260408083204290556005909152902090565b918254610d8d565b905560405160018152602090f35b60405162461bcd60e51b8152602060048201526011602482015270151c98591a5b99c81cdd5cdc195b991959607a1b6044820152606490fd5b346101d5575f3660031901126101d55760206040515f198152f35b346101d55760203660031901126101d55760206004356040519015158152f35b346101d55760203660031901126101d5576004356108e1816101c4565b6108f96105ba5f356001600160e01b03191633610edf565b60018060a01b0316806bffffffffffffffffffffffff60a01b5f5416175f55337f8be0079c531659141344cd1fd0a4f28419497f9722a3daafe3b4186f6b6457e05f80a3005b346101d55760203660031901126101d55760043561095c816101c4565b6109746105ba5f356001600160e01b03191633610edf565b6001600160a01b03165f818152600660205260408120805460ff191660011790557fdaf49ab9345b6cb75bcb5a7f726bff9183c34dcf5c098c385730f9fd893765f69080a2005b346101d55760203660031901126101d5576004356109d8816101c4565b6109f06105ba5f356001600160e01b03191633610edf565b6001600160a01b03168015610a1b576bffffffffffffffffffffffff60a01b60095416176009555f80f35b60405162461bcd60e51b815260206004820152601860248201527f496e76616c6964207665726966696572206164647265737300000000000000006044820152606490fd5b346101d55760203660031901126101d5576004355f526007602052602060ff60405f2054166040519015158152f35b15610a9657565b60405162461bcd60e51b815260206004820152601860248201527f496e76616c6964207369676e617475726520666f726d617400000000000000006044820152606490fd5b15610ae257565b60405162461bcd60e51b8152602060048201526011602482015270496e76616c6964207369676e617475726560781b6044820152606490fd5b634e487b7160e01b5f52601160045260245ffd5b5f198114610b3d5760010190565b610b1b565b919091805f52600760205260ff60405f205416610bdc57610ba5610bb291610b97610b8486610b7e610b79610bcb99604190511490565b610a8f565b83610df8565b6001600160a01b03868116911614610adb565b5f52600760205260405f2090565b805460ff19166001179055565b6001600160a01b03165f90815260086020526040902090565b610bd58154610b2f565b9055600190565b60405162461bcd60e51b815260206004820152601660248201527514da59db985d1d5c9948185b1c9958591e481d5cd95960521b6044820152606490fd5b908160209103126101d55751610c2f816105e5565b90565b6040513d5f823e3d90fd5b156101d557565b15610c4b57565b60405162461bcd60e51b815260206004820152600c60248201526b15539055551213d49256915160a21b6044820152606490fd5b15610c8657565b60405162461bcd60e51b81526020600482015260136024820152721059191c995cdcc8189b1858dadb1a5cdd1959606a1b6044820152606490fd5b15610cc857565b60405162461bcd60e51b815260206004820152601460248201527354726164652073697a6520746f6f206c6172676560601b6044820152606490fd5b15610d0b57565b60405162461bcd60e51b815260206004820152601660248201527554726164696e6720746f6f206672657175656e746c7960501b6044820152606490fd5b15610d5057565b60405162461bcd60e51b81526020600482015260156024820152740a0e4d2c6ca40d2dae0c2c6e840e8dede40d0d2ced605b1b6044820152606490fd5b91908201809211610b3d57565b60ff601b9116019060ff8211610b3d57565b15610db357565b60405162461bcd60e51b815260206004820152601960248201527f496e76616c6964207369676e617475726520762076616c7565000000000000006044820152606490fd5b6041825103610e9a576020915f91838201519160606040820151910151841a92601b8410610e83575b90610e6591610e3f60ff8616601b8114908115610e78575b50610dac565b604051948594859094939260ff6060936080840197845216602083015260408201520152565b838052039060015afa15610519575f5190565b601c9150145f610e39565b9290610e91610e6592610d9a565b93909150610e21565b60405162461bcd60e51b815260206004820152601860248201527f496e76616c6964207369676e6174757265206c656e67746800000000000000006044820152606490fd5b600154610ef4906001600160a01b031661041b565b6001600160a01b0381161515929083610f3a575b50508115610f14575090565b5f54909150610f2b906001600160a01b031661041b565b6001600160a01b039091161490565b60405163b700961360e01b81526001600160a01b03841660048201523060248201526001600160e01b031992909216604483015291925090602090829060649082905afa908115610519575f91610f95575b50905f80610f08565b610fae915060203d602011610512576105048183610320565b5f610f8c565b6040516318160ddd60e01b815290602090829060049082906001600160a01b03165afa908115610519575f91611024575b507e83126e978d4fdf3b645a1cac083126e978d4fdf3b645a1cac083126e978d4f81116101f4021561271002156101d5576101f4612710910204101590565b90506020813d60201161104e575b8161103f60209383610320565b810103126101d557515f610fe5565b3d9150611032565b6001600160a01b03165f818152600460205260409020541561108f575f52600460205260405f205460018101809111610b3d5742101590565b50600190565b9081156110fb57808211156110eb578103818111610b3d57905b7e068db8bac710cb295e9e1b089a027525460aa64c2f837b4a2339c0ebedfa43821161271002158102156101d5576127106103e8920204111590565b818103908111610b3d57906110af565b50505f9056fea264697066735822122094f903d3de09298e7a1b1c3e08dc8ce8f29d38545bd8f9f84c3eb387d1200e5b64736f6c634300081c0033","linkReferences":{}},"methodIdentifiers":{"CIRCUIT_BREAKER_THRESHOLD()":"0ca55cd7","COOLDOWN_PERIOD()":"6e99d52f","MAX_PRICE_IMPACT_BPS()":"15c2fe9a","MAX_TRADE_SIZE_BPS()":"3feb5154","MAX_UINT()":"e5b5019a","MIN_TIME_BETWEEN_TRADES()":"cae00a97","TRADE_WINDOW()":"0ff8ed81","authority()":"bf7e214f","blacklistAddress(address)":"f3290d75","blacklisted(address)":"dbac26e9","clearTradingHistory(address)":"a5d7d671","emergencyMode()":"0905f560","falconVerifier()":"ce750dd7","getTraderStats(address)":"c02495c3","isAddressBlacklisted(address)":"90683e8c","lastTradeTime(address)":"03186eef","owner()":"8da5cb5b","setAuthority(address)":"7a9e5e4b","setEmergencyMode(bool)":"be32b3f8","setFalconVerifier(address)":"f6d2f621","tradingVolume(address)":"1a2640a1","transferOwnership(address)":"f2fde38b","usedSignatures(bytes32)":"f978fd61","validateSignature(bytes32,bytes,address)":"7810e19f","validateTrade(address,address,uint256,uint256)":"e5674b23","validateTransactionHash(bytes32)":"eff05830","validationNonces(address)":"c1af70f6"},"id":47}