{"abi":[{"type":"constructor","inputs":[],"stateMutability":"nonpayable"},{"type":"function","name":"testVerification","inputs":[{"name":"a","type":"uint256[2]","internalType":"uint256[2]"},{"name":"b","type":"uint256[2][2]","internalType":"uint256[2][2]"},{"name":"c","type":"uint256[2]","internalType":"uint256[2]"},{"name":"input","type":"uint256[18]","internalType":"uint256[18]"}],"outputs":[{"name":"","type":"bool","internalType":"bool"}],"stateMutability":"view"},{"type":"function","name":"verifier","inputs":[],"outputs":[{"name":"","type":"address","internalType":"contract Groth16Verifier"}],"stateMutability":"view"}],"bytecode":{"object":"0x60808060405234607d57610f8d8181016001600160401b0381118382101760695782916103a3833903905ff08015605e575f80546001600160a01b0319166001600160a01b039290921691909117905560405161032190816100828239f35b6040513d5f823e3d90fd5b634e487b7160e01b5f52604160045260245ffd5b5f80fdfe6080806040526004361015610012575f80fd5b5f3560e01c9081632b7ac3f3146102435750632f1d845214610032575f80fd5b346101855761034036600319011261018557366023121561018557610058366004610287565b36606312156101855760409081516100708382610265565b803660c411610185576044905b60c4821061021f5750503660e312156101855761009b3660c4610287565b366101231215610185578351906100b461024083610265565b81366103441161018557610104905b61034482106101fb5750505f548551634483e72160e01b8152946001600160a01b0390911693859392916100fb9060048601906102c4565b5f604485015b600282106101b55750505061011a9060c48401906102c4565b5f61010483015b6012821061019b57505050610344816020935afa908115610191575f9161014f575b50602091519015158152f35b90506020813d602011610189575b8161016a60209383610265565b81010312610185575190811515820361018557906020610143565b5f80fd5b3d915061015d565b82513d5f823e3d90fd5b829350602080916001939451815201930191018492610121565b90919293945087835182905f915b600283106101e257505050602090600192019301910186949392610101565b815181528b9350600190920191602091820191016101c3565b81358152602091820191016100c3565b634e487b7160e01b5f52604160045260245ffd5b36601f8301121561018557602085916102383685610287565b81520191019061007d565b34610185575f366003190112610185575f546001600160a01b03168152602090f35b90601f8019910116810190811067ffffffffffffffff82111761020b57604052565b91906040805193906102999085610265565b83906040810192831161018557905b8282106102b457505050565b81358152602091820191016102a8565b905f905b600282106102d557505050565b60208060019285518152019301910190916102c856fea264697066735822122009260799857dcb568b1fa0d4b6bbb9955e230b8019e46af599e1722bcd6fe05464736f6c634300081c003360808060405234601557610f73908161001a8239f35b5f80fdfe60806040526004361015610011575f80fd5b5f3560e01c634483e72114610024575f80fd5b34610147576103403660031901126101475761003f3661014b565b3660c4116101475761005036610158565b3661034411610147576101409161040060405261006f61010435610166565b61007b61012435610166565b61008761014435610166565b61009361016435610166565b61009f61018435610166565b6100ab6101a435610166565b6100b76101c435610166565b6100c36101e435610166565b6100cf61020435610166565b6100db61022435610166565b6100e761024435610166565b6100f361026435610166565b6100ff61028435610166565b61010b6102a435610166565b6101176102c435610166565b6101236102e435610166565b61012f61030435610166565b61013b61032435610166565b610b6e565b5f5260205ff35b5f80fd5b9060049160441161014757565b9060c4916101041161014757565b7f30644e72e131a029b85045b68181585d2833e84879b9709143e1f593f0000001111561018f57565b5f805260205ff35b604051917f0e0a5b56876262b2213d35c247fc4b4d1396bc4e18121d2789b516ee122f08f883527f094c64bf259a05f7747c37c10ec6d4f6e03a73fd0caf59b2e4d7f8e39ea92bb560208401526040830190815260408360608160076107cf195a01fa1561018f57815190526020810151606083015260409160809060066107cf195a01fa1561018f57565b604051917ee3c90274c343a6784d738e3e1431d11a1eeb128469ccc96075dd7fbb429e9e83527f2eea47e66ddcb85e7209483597584e9906a482c14125fe85836a9e20716eba1e60208401526040830190815260408360608160076107cf195a01fa1561018f57815190526020810151606083015260409160809060066107cf195a01fa1561018f57565b604051917f0f425a6849d10511915e493ae05ca4afa27c8605593b580d5b9047942a5d1a1283527f1b1e6d665ac617f5afcb832ebd802b3740fe994ce0023f186c93c969615d6a0160208401526040830190815260408360608160076107cf195a01fa1561018f57815190526020810151606083015260409160809060066107cf195a01fa1561018f57565b604051917f2aa046553e109b3bcb1d6be57fb4eeb629addbf3262b95249bfa816dc3da8a0c83527f2bacef9c14722dae652554f0f91a8c0fa237fdc5bd95f5bc54d614a29ae1790060208401526040830190815260408360608160076107cf195a01fa1561018f57815190526020810151606083015260409160809060066107cf195a01fa1561018f57565b604051917f051ca83022edfbaa7d976d23ebc489af1f8582227ec81490ad2b861032f6fc2283527f0f96296b9c3d30b6c1013b102497c85368eb5b000c645acad37a2db926c1277560208401526040830190815260408360608160076107cf195a01fa1561018f57815190526020810151606083015260409160809060066107cf195a01fa1561018f57565b604051917f02a9db849a9564ed6c4efdf6655a1b79a8c2b9365bed983491538b3548a138fb83527f265f631406ca5708cdc391ce110a93249f593f8d81504514e4de359de825e80e60208401526040830190815260408360608160076107cf195a01fa1561018f57815190526020810151606083015260409160809060066107cf195a01fa1561018f57565b604051917f0eb4096477456f348d167bc7f53175590f28df3e9afec046d063b31243a2765d83527f06905db0c0a1961df4ac978a2613212d38706ec3bca088c16aaf557dcfa849cf60208401526040830190815260408360608160076107cf195a01fa1561018f57815190526020810151606083015260409160809060066107cf195a01fa1561018f57565b604051917f1fc19c02466041855458e49ebbf5650a1170fbfdf3f482d46bf60143570c84b383527f13e2a88ccaae8e78352f9893b6568223161ebcd9c175a0a32127110e8131f3c160208401526040830190815260408360608160076107cf195a01fa1561018f57815190526020810151606083015260409160809060066107cf195a01fa1561018f57565b604051917f062319da747a7a8d0e3e99597e80f2edbe975d1aba1ae9e038223f4b5edf2d5583527f093b48f29aa720a0a7b6133cfffbb5aa03ce89f13c9b5e3d3d361795541cab1c60208401526040830190815260408360608160076107cf195a01fa1561018f57815190526020810151606083015260409160809060066107cf195a01fa1561018f57565b604051917f3040f2a1c89ce2837a0ea6f7e9b2e09519f333b46b0fefd270dae0ae83c9964e83527f01b4a1b35002fc74a3a49c4ba0a1c72eff32d6a16bd414df3a1fabeed14e245260208401526040830190815260408360608160076107cf195a01fa1561018f57815190526020810151606083015260409160809060066107cf195a01fa1561018f57565b604051917f24d071689512e3d85d71a1c7b8b57ecf7a76c0faadfe3fccbe63bca9c15f855a83527f06dc8ead9b50080b0c36ab69a71d3900994579af1410d3d31607160b49ee8c3760208401526040830190815260408360608160076107cf195a01fa1561018f57815190526020810151606083015260409160809060066107cf195a01fa1561018f57565b604051917f2445779287d01796575a6d4ee0fc6876345da3c9ae477c781e0229afc8c574a183527f172bd93959665763bbe19ccc80058bedbbb1d383fd6f8dc7aa241a0c62cecc9260208401526040830190815260408360608160076107cf195a01fa1561018f57815190526020810151606083015260409160809060066107cf195a01fa1561018f57565b604051917f29acc4578dc03ffc28bc485b2f3cf8dae243ed76225b13201ca671949b127d4583527f1e1aa2de094aceec77b194b7a1793b76f4fbc5f049393e3b95d36d54663b5f8c60208401526040830190815260408360608160076107cf195a01fa1561018f57815190526020810151606083015260409160809060066107cf195a01fa1561018f57565b604051917f0107e0eab5477c68f18d029eca668d04c09a6de211969cd12672cee071b5f3bc83527f18d9b9b3cb0759c850f37d3dc6759d2655aa3f79e13eca8a586003be3e7433d660208401526040830190815260408360608160076107cf195a01fa1561018f57815190526020810151606083015260409160809060066107cf195a01fa1561018f57565b604051917f1c6aec965568f002fc9bf67757e4bd965c8dce324f497c678c849579c4db500083527f0ac7d3be24050904dc5361799e5cfde555a4ab9c86114d32c7c50299b411dcc860208401526040830190815260408360608160076107cf195a01fa1561018f57815190526020810151606083015260409160809060066107cf195a01fa1561018f57565b604051917f137d6ae17bca31a93751d6788d4e03feca88c4528782b85f27cd54c2130bee4d83527f1acfba270b41fc31e28865490b303a2a5495b8e737066e55b7198fe5f48631f360208401526040830190815260408360608160076107cf195a01fa1561018f57815190526020810151606083015260409160809060066107cf195a01fa1561018f57565b604051917f1b76e82306822a659201c7bace8a0940603485f97197d60a0492386a06eadc9683527f0f8ceeadb0a14709a62b6bb511bf47a5a802068bc222d714846510545e89ec3360208401526040830190815260408360608160076107cf195a01fa1561018f57815190526020810151606083015260409160809060066107cf195a01fa1561018f57565b604051917f20f9fe47438ee45229a77c85dbd33243cb560bdd258b158c814ecf2e29c4c23683527f1ac2991e5437e400edce739a98fb46860b7627e0f2d52b633b1674920a00987660208401526040830190815260408360608160076107cf195a01fa1561018f57815190526020810151606083015260409160809060066107cf195a01fa1561018f57565b907f30644e72e131a029b85045b68181585d97816a916871ca8d3c208c16d87cfd47602080937f05a30c5da505fa74415bf911c387b5b0af190a3bdf0cb0c4e8199db2d035b4fd6080527f062b479c8d8e10aaa01f46f5d83858450322b7d448a3aa423bf6561c1ad56c4b60a052610bea610104356080610197565b610bf8610124356080610223565b610c066101443560806102ae565b610c1461016435608061033a565b610c226101843560806103c6565b610c306101a4356080610452565b610c3e6101c43560806104de565b610c4c6101e435608061056a565b610c5a6102043560806105f6565b610c68610224356080610682565b610c7661024435608061070e565b610c8461026435608061079a565b610c92610284356080610826565b610ca06102a43560806108b2565b610cae6102c435608061093e565b610cbc6102e43560806109ca565b610cca610304356080610a56565b610cd8610324356080610ae2565b80356101005201358103066101205260443561014052606435610160526084356101805260a4356101a0527f2d4d9aa7e302d9df41749d5507949d05dbea33fbb16c643b22f599a2be6df2e26101c0527f14bedd503c37ceb061d8ec60209fe345ce89830a19230301f076caff004d19266101e0527f0967032fcbf776d1afc985f88877f182d38480a653f2decaa9794cbc3bf3060c610200527f0e187847ad4c798374d0d6732bf501847dd68bc0e071241e0213bc7fc13db7ab610220527f304cfbd1e08a704a99f5e847d93f8c3caafddec46b7a0d379da69a4d112346a7610240527f1739c1b1a457a8c7313123d24d2f9192f896b7c63eea05a9d57f06547ad0cec8610260526080516102805260a0516102a0527f198e9393920d483a7260bfb731fb5d25f1aa493335a9e71297e485b7aef312c26102c0527f1800deef121f1e76426a00665e5c4479674322d4f75edadd46debd5cd992f6ed6102e0527f090689d0585ff075ec9e99ad690c3395bc4b313370b38ef355acdadcd122975b610300527f12c85ea5db8c6deb4aab71808dcb408fe3d1e7690c43d37b4ce6cc0166fa7daa610320528035610340520135610360527f1ac176c143f56509adef533c71b703268bbefbccbe5467af1b3931af0051a501610380527f2a152e4f63ce964256f6d3b83503f34478e6bc4b079f56d8bff369182d995a936103a0527f28dadb0ebc56c78e9ce5cc8ee4ff481b1ab8f6adbe34f36b8bed01c5ef7c92946103c0527f0ebf2bd94dd0f679d44732508ab0838abe28ed6906f24dd375491e78a667dd1b6103e05260206101006103008160086107cf195a01fa61010051169056fea2646970667358221220fcf3252330113fafbcd64589a799110ea2545ada7f55d46cdb0015392160375f64736f6c634300081c0033","linkReferences":{}},"methodIdentifiers":{"testVerification(uint256[2],uint256[2][2],uint256[2],uint256[18])":"2f1d8452","verifier()":"2b7ac3f3"},"id":41}